:100B080053504920466C6173682064656D6F20738B
:100B180074617274202E2E2E0A002530327820003F
:060B2800646F6E650A0017
:10071A00120BA07F147E00120B601209967BFF7ADF
:10072A000B7908120065E4900040F0A3F0900040B5
:10073A00E0FEA3E0FFCDEFCD2400F58274003EF584
:10074A0083EDF0900041E004F07006900040E00470
:10075A00F0900040E07004A3E0644070D0120B48AF
:10076A007F007E007D007C00120A57750C00750D13
:10077A0040750E01750F007510007F037E007D0025
:10078A007C001207F1750C00750D40750E01750F8E
:10079A00007510007F007E007D007C0012035FE47C
:1007AA00900040F0A3F0900040E0FEA3E0FF644018
:1007BA004E60297BFF7A0B792274002FF582740030
:1007CA003EF583E0750B00F50C120065900041E0E0
:1007DA0004F070D2900040E004F080CA7BFF7A0BEC
:0707EA00792812006580FE72
:0B0BBE0069643A3078253034780A0072
:100B8E00C2947F05120000120000900046EFF0D2D2
:010B9E0094C2
:010B9F002233
:080BE700120B8EEF20E0F92251
:0A0BC900C2947F06120000D29422AD
:100A57008F0B8E0A8D098C08120BC9120BE7C294F3
:100A67007F20120000E50BFFE50AFEE509FDE4FC27
:100A770078101206B8120000E50BFFE50AFEE4FD48
:100A8700FC78081206B8120000E50BFFE41200001C
:050A9700D294020BE700
:100A9C008F1F8E1E8D1D8C1C120BC9120BE7C2945E
:100AAC007F52120000E51FFFE51EFEE51DFDE4FC74
:100ABC0078101206B8120000E51FFFE51EFEE4FDDB
:100ACC00FC78081206B8120000E51FFFE4120000C3
:050ADC00D294020BE7BB
:08091B008F148E138D128C1154
:10092300120BC9C2947F02120000E514FFE513FE07
:10093300E512FDE4FC78101206B8120000E514FF7E
:10094300E513FEE4FDFC78081206B8120000E51476
:10095300FFE4120000E4900044F0A3F0900044E0B0
:10096300FEA3E0FF65167003EE65156021AB17AAC1
:1009730018A9198F828E83120589FF120000900037
:1009830045E004F070D6900044E004F080CED294A9
:03099300020BE76D
:0807F1008F0B8E0A8D098C08A4
:1007F900E4C39FFF74019400FE900042F0A3EFF060
:10080900D3E50D9FE50C9E50059000428078AF0B13
:10081900AE0AAD09AC08900042E0F515A3E0F51663
:10082900850E17850F1885101912091B900042E0D3
:10083900FAA3E0FB650D7003EA650C605390004272
:10084900E0FEA3E0FF2510F510EE350FF50FE4FCEF
:10085900FDE50B2FF50BE50A3EF50AED3509F5091E
:10086900EC3508F508C3E50D9BF50DE50C9AF50C7B
:10087900D3E50D9400E50C94019000424008740101
:10088900F0A3E4F08088E50CF0A3E50DF002081769
:01089900223C
:08089A008F258E248D238C2292
:1008A200E4900047F0A3F0C2947F03120000E52514
:1008B200FFE524FEE523FDE4FC78101206B81200E1
:1008C20000E525FFE524FEE4FDFC78081206B812D7
:1008D2000000E525FFE4120000E4900047F0A3F0D9
:1008E200900047E065267004A3E0652760281200A7
:1008F20000AB28AA29A92A900047E0FCA3E0F582D0
:100902008C83EF1205C8900048E004F070D290008A
:0809120047E004F080CAD29412
:01091A0022BA
:08035F008F0B8E0A8D098C083A
:10036700E50CC4F854F0C868900044F0E50DC45497
:100377000F48A3F0850E11850F12851013C2947FC5
:100387000B120000E50BFFE50AFEE509FDE4FC782A
:10039700101206B8120000E50BFFE50AFEE4FDFCAB
:1003A70078081206B8120000E50BFFE4120000E41B
:1003B700FF12000075F9FF43FA10E4900042F0A322
:1003C700F0900044E0FEA3E0FF900042E06E70036F
:1003D700A3E06F7003020583AB11AA12A913E5F915
:1003E7001205B674012513F513E43512F51230FB27
:1003F700FDAB11AA12A913E5F91205B6740125136D
:10040700F513E43512F51230FBFDAB11AA12A9134F
:10041700E5F91205B674012513F513E43512F51243
:1004270030FBFDAB11AA12A913E5F91205B6740149
:100437002513F513E43512F51230FBFDAB11AA12A3
:10044700A913E5F91205B674012513F513E435125E
:10045700F51230FBFDAB11AA12A913E5F91205B687
:1004670074012513F513E43512F51230FBFDAB11BA
:10047700AA12A913E5F91205B674012513F513E4B9
:100487003512F51230FBFDAB11AA12A913E5F912CB
:1004970005B674012513F513E43512F51230FBFD8B
:1004A700AB11AA12A913E5F91205B674012513F5C4
:1004B70013E43512F51230FBFDAB11AA12A913E5AF
:1004C700F91205B674012513F513E43512F5123048
:1004D700FBFDAB11AA12A913E5F91205B6740125A4
:1004E70013F513E43512F51230FBFDAB11AA12A96F
:1004F70013E5F91205B674012513F513E43512F562
:100507001230FBFDAB11AA12A913E5F91205B67457
:10051700012513F513E43512F51230FBFDAB11AAD3
:1005270012A913E5F91205B674012513F513E4357D
:1005370012F51230FBFDAB11AA12A913E5F912054A
:10054700B674012513F513E43512F51230FBFDAB34
:1005570011AA12A913E5F91205B674012513F513AB
:10056700E43512F51230FBFD900043E004F0600320
:100577000203C8900042E004F00203C853FAEFD226
:0105870094DF
:010588002250
:100A0E00E4900042F0A3F0C2947F9F120000E4FF36
:100A1E00120000E4FF120000E4FF120000120000BA
:100A2E00900042E4F0A3EFF0E0F8E4F0E89000422A
:100A3E00F0120000900042E0FEA3E04FFF90004253
:080A4E00EEF0FEA3EFF0D294DC
:010A5600227D
:100B48007F0312000075FB04120A0E8E0B8F0C7BBC
:080B5800FF7A0B79BE02006573
:100BA00075A15575A1AAE5B954F84406F5B9E4F55F
:020BB000A12280
:100B2E00EF4E601505A105A105A105A105A105A121
:0A0B3E0005A1EF1F70EA1E80E722F8
:100B6000AD07AC06ED4C600E7FE87E03120B2EED58
:070B70001D70F11C80EE2254
:0A0BD3004396C04397C053AAE722DF
:10099600C29FD29EC29DC2CDC2CC438780E4750B56
:1009A60082F50AF509F5087B0AFAF9F8AF0BAE0AE3
:1009B600AD09AC08120626AF038F0CAF0BAE0AAD1D
:1009C60009AC08E47B0AFAF9F81206268F0B8E0AA0
:1009D6008D098C08C3E50C9405748094804011EF52
:1009E6002401F50BE43EF50AE43DF509E43CF5087F
:1009F600E589540F4420F58943C9A0E50BF404F5B5
:070A06008DD28ED299D29C23
:010A0D0022C6
:0A0BDD0075A15575A1AA43B11022BD
:100B770075A15575A1AAEF600543B101800353B173
:070B8700FEE4F5A1F5FF22D9
:030BEF008FFF2253
:03000000020BB23E
:0C0BB200787FE4F6D8FD75812A02071A4E
:10058900BB010CE58229F582E5833AF583E0225027
:1005990006E92582F8E622BBFE06E92582F8E22271
:0D05A900E58229F582E5833AF583E493228B
:1005B600BB010689828A83F0225002F722BBFE0124
:0205C600F3221E
:1005C800F8BB010DE58229F582E5833AF583E8F069
:1005D800225006E92582C8F622BBFE05E92582C815
:0205E800F222FD
:1005EA0075F008758200EF2FFFEE33FECD33CDCCC8
:1005FA0033CCC58233C5829BED9AEC99E58298404B
:10060A000CF582EE9BFEED9AFDEC99FC0FD5F0D627
:10061A00E4CEFBE4CDFAE4CCF9A88222B800C1B951
:10062A000059BA002DEC8BF084CFCECDFCE5F0CB8F
:10063A00F97818EF2FFFEE33FEED33FDEC33FCEBC8
:10064A0033FB10D703994004EB99FB0FD8E5E4F983
:10065A00FA227818EF2FFFEE33FEED33FDEC33FC70
:10066A00C933C910D7059BE99A4007EC9BFCE99A64
:10067A00F90FD8E0E4C9FAE4CCFB2275F010EF2FA9
:10068A00FFEE33FEED33FDCC33CCC833C810D707A9
:10069A009BEC9AE899400AED9BFDEC9AFCE899F8E4
:0E06AA000FD5F0DAE4CDFBE4CCFAE4C8F92277
:1006B800E8600FECC313FCED13FDEE13FEEF13FF20
:0306C800D8F12244
:10000300E517240BF8E60517227808300702780B6A
:10001300E475F0011206E40206CB2000EB7F2ED23A
:10002300008018EF540F2490D43440D4FF30040BD5
:10003300EF24BFB41A0050032461FFE518600215D2
:1000430018051BE51B7002051A30070D7808E475C7
:10005300F0011206E4EF0205B6020AE17403D207C7
:100063008003E4C207F5178B088A09890AE4F518A7
:10007300F51AF51BE51860077F2012003E80F57521
:1000830019FFC201C200C202C203C205C206C208EE
:1000930012000CFF700D3007057F0012004FAF1BDD
:1000A300AE1A22B4255FC2D5C20412000CFF24D0BD
:1000B300B40A00501A75F00A781830D50508B6FF4F
:1000C3000106C6A426F620D5047002D20380D924E3
:1000D300CFB41A00EF5004C2E5D20402024FD2019A
:1000E30080C6D20080C0D20280BCD2D580BAD205ED
:1000F30080B47F2012003E2002077401B51800402F
:10010300F1120003FF12003E020077D208D20680EC
:1001130095120003FB120003FA120003F94A4B7015
:100123000679207A037BFF20022EE518602A7E00E1
:100133008E8275830012058960060EEE651970F0D4
:10014300C2D5EBC0E0EAC0E0E9C0E0EE120296D00F
:10015300E0F9D0E0FAD0E0FB1206CBFF60AAEBC0D7
:10016300E0EAC0E0E9C0E012003ED0E02401F9D0AB
:10017300E03400FAD0E0FBE5190460DCD519D9803E
:10018300877BFF7A027992D202809C791080027970
:1001930008C206C2088008D2D5790A8004790AC247
:1001A300D5E519047002F519E4FAFDFEFF12000308
:1001B300FC7B08200113120003FD7B1030000A12A0
:1001C3000003FE120003FF7B20EC3382D592D5504F
:1001D30013C3E43000069FFFE49EFEE42001039D69
:1001E300FDE49CFCE4CBF8C201EC700CCFCECDCC8B
:1001F300E824F8F870F38017C3EF33FFEE33FEED16
:1002030033FDEC33FCEB33FB994002FB0FD8E9EBF6
:10021300300105F8D0E0C448B201C0E00AEC4D4E0D
:100223004F78207B0070C2EAB5190040BCC0E012D1
:100233000298D0F0D0E0200104C4C0E0C4B201C0F1
:10024300F0120027D0F0D5F0EB0200771206F4018C
:100253001453018E5800E54C00E14201924F019A7C
:0F02630044019A4900FA4301A0550184460184E1
:100272004501844703405000E92D00ED2E01102B6B
:1002820000F123010E2003292A00A94800000108D9
:100292003F3F3F00790AA2D5200314300509B91067
:1002A200020404B9080104A2D52006025001042068
:1002B20002689202B518005034C0E07F2030031962
:1002C2007F30A20272067205500F1202EFC202C202
:1002D20006C205C2087F30800F300503E9C0E01274
:1002E200003E300503D0E0F9D0E0B518CC30051758
:1002F2007F30B9100C12003E7F583004077F78809F
:1003020003B9080312003E3002057F2D02003E7F32
:10031200202008F87F2B2006F322920280CF286E3D
:10032200756C6C2900D2011200033001F8C2017809
:100332001830D50108F60200A92D50434958120081
:10034200032403B405004001E490033B9312002F01
:0D035200743A12002FD20375180402018EB8
:1006CB00BB010689828A83E0225002E722BBFE022D
:0906DB00E32289828A83E4932260
:1006E400FAE6FB0808E6F925F0F618E6CA3AF62217
:1006F400D083D082F8E4937012740193700DA3A395
:1007040093F8740193F5828883E4737402936860A8
:06071400EFA3A3A380DFA8
:100AE100EFB40A07740D120AEC740A309811A89930
:100AF100B8130CC2983098FDA899C298B811F63075
:070B010099FDC299F599224C
:00000001FF
