:1009D700466C617368526F6D2064656D6F20737428
:1009E700617274202E2E2E0A0044617461466C6178
:1009F70073682045726173652E2E2E0A00253032EA
:100A070078200A0044617461466C617368205772EC
:100A17006974652E2E2E0A0044617461466C6173F9
:100A27006820526561642E2E2E0A007265616C2063
:100A37006C656E3A25640A002530327820004572CD
:100A470072204F66667365743A253032780A000A59
:100A57000A00436F6465466C617368204572617371
:100A6700652E2E2E0A00436F6465466C61736820FD
:100A770057726974652E2E2E0A00436F6465466CA3
:100A870061736820526561642E2E2E0A00436F6ED3
:100A970066696720496E666F726D6174696F6E2053
:100AA700526561642E2E2E0A006366673A2530323E
:100AB7007820253032780A00556E697175652049AE
:100AC700442E2E2E0A003078256C782000307825A9
:040AD7006C780A002D
:10064200120CB17F147E00120C70120B677BFF7AC2
:100652000979D7120065E4F509E50964406012746E
:10066200002509F582E43400F583E509F0050980E7
:10067200E87E007F407D007B017A00794012058888
:100682007BFF7A0979F01200657F007E3812000044
:100692008F08EF600E7BFF7A0A7904750E00F50F62
:1006A2001200657BFF7A0A790B1200657C007D00DF
:1006B2007B407F007E381200008F08EF600E7BFFC8
:1006C2007A0A7904750E00F50F1200657BFF7A0A2B
:1006D200791F1200657B017A007940750000750070
:1006E200407F007E381200008F0A7BFF7A0A79323F
:1006F200750E008F0F120065E4F509E509650A60C1
:10070200487BFF7A0A793F74402509F582E4340078
:10071200F583E0750E00F50F12006574002509F5EA
:1007220082E43400F583E0FF74402509F582E43465
:1007320000F583E06F600E7BFF7A0A794585090E2A
:1007420012006580FE050980B27BFF7A0A79561293
:1007520000657E007F407D007B017A0079401205B2
:10076200887BFF7A0A79591200657FC07E371200B2
:10077200008F08EF600E7BFF7A0A7904750E00F590
:100782000F1200657BFF7A0A796D1200657C007D8D
:10079200007B407FC07E371200008F08EF600E7B27
:1007A200FF7A0A7904750E00F50F1200657BFF7A55
:1007B2000A79811200657B017A0079407500007523
:1007C20000407FC07E371200008F0A7BFF7A0A79D1
:1007D20032750E008F0F120065E4F509E509650A0E
:1007E20060487BFF7A0A793F74402509F582E43438
:1007F20000F583E0750E00F50F12006574002509FF
:10080200F582E43400F583E0FF74402509F582E4C3
:100812003400F583E06F600E7BFF7A0A7945850923
:100822000E12006580FE050980B27BFF7A0A7956B6
:100832001200657BFF7A0A79941200657B017A00C7
:1008420079407500007500027FFE7E3F1200008F26
:100852000A7BFF7A0A7932750E008F0F1200657BD0
:10086200FF7A0A79B0900041E0750E00F50F900012
:1008720040E0751000F5111200657BFF7A0A79BF1E
:100882001200657F141200008F118E108D0F8C0ED6
:100892007BFF7A0A79CD1200657F101200008F115A
:1008A2008E108D0F8C0E7BFF7A0A79D41200658030
:0108B200FE47
:040CD700022C0000EB
:100C9E0053920F53930F43F30853F3FC75F604432B
:030CAE00F320220E
:0A08B3008B228A2389248C258D26D0
:1008BD00752701E52764086033AB22AA23A92475A7
:1008CD00F002E527A4F58285F083120455FDE52796
:1008DD0024FFFFE434FFFEEF25E0FFEE338F82F5BA
:1008ED0083E5F08DF012048D052780C7E52724FFE1
:1008FD00FFE434FFFEEF25E0FFEE33AB22AA23A980
:10090D00248F82F583E5258526F012048DC8742E7B
:10091D00C8CC7400CCCDE4CDAB22AA23A9247E0093
:10092D007F1012042F7B07E4F527E5276B6050E558
:10093D002704FFEF64086043EF25E0242FF8C9E892
:10094D00C9E52725E0242EF8E6FC08E6FDC397EC63
:10095D0019975024EF25E0242EF8E6F58308E6F5E7
:10096D0082E52725E0242EF8A68308A682EF25E050
:10097D00242EF8ECF608EDF60F80B8052780ABE4D1
:10098D00F52BF52AF529F5287B07752701E5276B4A
:10099D006027E52725E0242EF8E6FE08E6FFE4FCB7
:1009AD00FDE52B2FF52BE52A3EF52AED3529F52909
:1009BD00EC3528F528052780D4E47B06FAF9F8AF45
:0A09CD002BAE2AAD29AC280204F677
:100BDF00E5F654F04FF5F68DF2E5F320E7FBE5F57A
:100BEF00540FF52C85F42DE4F5F2EF75F010A424D5
:100BFF003EF9E4FAFBAD2DAC2C1208B38E2C8F2DE1
:010C0F0022C2
:100C3700E5F654F04FF5F68DF2E5F320E7FBE5F521
:0F0C4700540FF52C85F42DE4F5F2AE2CAF2D22D1
:100CB10075A15575A1AAE5B954F84406F5B9E4F54D
:020CC100A1226E
:100C5600EF4E601505A105A105A105A105A105A1F8
:0A0C660005A1EF1F70EA1E80E722CF
:100C7000AD07AC06ED4C600E7FE87E03120C56ED1E
:070C80001D70F11C80EE2243
:0A0CC3004396C04397C053AAE722EE
:100B6700C29FD29EC29DC2CDC2CC438780E4750E80
:100B770082F50DF50CF50B7B0AFAF9F8AF0EAE0D01
:100B8700AD0CAC0B1204F6AF038F0FAF0EAE0DAD6D
:100B97000CAC0BE47B0AFAF9F81204F68F0E8E0DF3
:100BA7008D0C8C0BC3E50F9405748094804011EF76
:100BB7002401F50EE43EF50DE43DF50CE43CF50BA0
:100BC700E589540F4420F58943C9A0E50EF404F5DF
:070BD7008DD28ED299D29C51
:010BDE0022F4
:0A0CCD0075A15575A1AA43B11022CC
:100C870075A15575A1AAEF600543B101800353B162
:070C9700FEE4F5A1F5FF22C8
:030CDC008FFF2265
:03000000020ADB16
:0C0ADB00787FE4F6D8FD7581FD020B2247
:10035F00E709F608DFFA8046E709F208DFFA803E80
:10036F0088828C83E709F0A3DFFA8032E309F6086D
:10037F00DFFA8078E309F208DFFA807088828C83D5
:10038F00E309F0A3DFFA806489828A83E0A3F60889
:10039F00DFFA805889828A83E0A3F208DFFA804C63
:1003AF0080D280FA80C680D4806980F2803380103A
:1003BF0080A680EA809A80A880DA80E280CA8033A3
:1003CF0089828A83ECFAE493A3C8C582C8CCC5831B
:1003DF00CCF0A3C8C582C8CCC583CCDFE9DEE780EB
:1003EF000D89828A83E493A3F608DFF9ECFAA9F06A
:1003FF00EDFB2289828A83ECFAE0A3C8C582C8CCC0
:10040F00C583CCF0A3C8C582C8CCC583CCDFEADED8
:10041F00E880DB89828A83E493A3F208DFF980CC3A
:10042F0088F0EF60010E4E60C388F0ED2402B40433
:10043F000050B9F582EB2402B4040050AF232345DA
:06044F0082239003AF734D
:10045500BB0110E58229F582E5833AF583E0F5F0E5
:10046500A3E0225009E92582F886F008E622BBFEC2
:100475000AE92582F8E2F5F008E222E5832AF58308
:08048500E993F5F0A3E99322CD
:10048D00F8BB0111E58229F582E5833AF583E8F0A1
:10049D00E5F0A3F0225009E92582C8F608A6F0225E
:0D04AD00BBFE09E92582C8F2E5F008F22245
:1004BA0075F008758200EF2FFFEE33FECD33CDCCF9
:1004CA0033CCC58233C5829BED9AEC99E58298407C
:1004DA000CF582EE9BFEED9AFDEC99FC0FD5F0D659
:1004EA00E4CEFBE4CDFAE4CCF9A88222B800C1B983
:1004FA000059BA002DEC8BF084CFCECDFCE5F0CBC1
:10050A00F97818EF2FFFEE33FEED33FDEC33FCEBF9
:10051A0033FB10D703994004EB99FB0FD8E5E4F9B4
:10052A00FA227818EF2FFFEE33FEED33FDEC33FCA1
:10053A00C933C910D7059BE99A4007EC9BFCE99A95
:10054A00F90FD8E0E4C9FAE4CCFB2275F010EF2FDA
:10055A00FFEE33FEED33FDCC33CCC833C810D707DA
:10056A009BEC9AE899400AED9BFDEC9AFCE899F815
:0E057A000FD5F0DAE4CDFBE4CCFAE4C8F922A8
:10000300E51A240EF8E6051A22780B300702780E5B
:10001300E475F00112060C0205B42000EB7F2ED22A
:10002300008018EF540F2490D43440D4FF30040BD5
:10003300EF24BFB41A0050032461FFE51B600215CF
:100043001B051EE51E7002051D30070D780BE475B8
:10005300F00112060CEF0205FA020C107403D2072A
:100063008003E4C207F51A8B0B8A0C890DE4F51B98
:10007300F51DF51EE51B60077F2012003E80F57518
:100083001CFFC201C200C202C203C205C206C208EB
:1000930012000CFF700D3007057F0012004FAF1EDA
:1000A300AE1D22B4255FC2D5C20412000CFF24D0BA
:1000B300B40A00501A75F00A781B30D50508B6FF4C
:1000C3000106C6A426F620D5047002D20380D924E3
:1000D300CFB41A00EF5004C2E5D20402024FD2019A
:1000E30080C6D20080C0D20280BCD2D580BAD205ED
:1000F30080B47F2012003E2002077401B51B00402C
:10010300F1120003FF12003E020077D208D20680EC
:1001130095120003FB120003FA120003F94A4B7015
:100123000679207A037BFF20022EE51B602A7E00DE
:100133008E827583001205CD60060EEE651C70F08D
:10014300C2D5EBC0E0EAC0E0E9C0E0EE120296D00F
:10015300E0F9D0E0FAD0E0FB1205B4FF60AAEBC0EF
:10016300E0EAC0E0E9C0E012003ED0E02401F9D0AB
:10017300E03400FAD0E0FBE51C0460DCD51CD98038
:10018300877BFF7A027992D202809C791080027970
:1001930008C206C2088008D2D5790A8004790AC247
:1001A300D5E51C047002F51CE4FAFDFEFF12000302
:1001B300FC7B08200113120003FD7B1030000A12A0
:1001C3000003FE120003FF7B20EC3382D592D5504F
:1001D30013C3E43000069FFFE49EFEE42001039D69
:1001E300FDE49CFCE4CBF8C201EC700CCFCECDCC8B
:1001F300E824F8F870F38017C3EF33FFEE33FEED16
:1002030033FDEC33FCEB33FB994002FB0FD8E9EBF6
:10021300300105F8D0E0C448B201C0E00AEC4D4E0D
:100223004F78207B0070C2EAB51C0040BCC0E012CE
:100233000298D0F0D0E0200104C4C0E0C4B201C0F1
:10024300F0120027D0F0D5F0EB02007712061C0164
:100253001453018E5800E54C00E14201924F019A7C
:0F02630044019A4900FA4301A0550184460184E1
:100272004501844703405000E92D00ED2E01102B6B
:1002820000F123010E2003292A00A94800000108D9
:100292003F3F3F00790AA2D5200314300509B91067
:1002A200020404B9080104A2D52006025001042068
:1002B20002689202B51B005034C0E07F203003195F
:1002C2007F30A20272067205500F1202EFC202C202
:1002D20006C205C2087F30800F300503E9C0E01274
:1002E200003E300503D0E0F9D0E0B51BCC30051755
:1002F2007F30B9100C12003E7F583004077F78809F
:1003020003B9080312003E3002057F2D02003E7F32
:10031200202008F87F2B2006F322920280CF286E3D
:10032200756C6C2900D2011200033001F8C2017809
:100332001B30D50108F60200A92D5043495812007E
:10034200032403B405004001E490033B9312002F01
:0D035200743A12002FD203751B0402018EB5
:10058800EF4E6012EF60010EEDBB010B89828A838A
:10059800F0A3DFFCDEFA2289F05007F709DFFCA997
:0C05A800F022BBFEFCF309DFFCA9F022EE
:100AE700020642E493A3F8E493A34003F68001F2DD
:100AF70008DFF48029E493A3F85407240CC8C33310
:100B0700C4540F4420C8834004F456800146F6DFDE
:100B1700E4800B0102040810204080900CD7E47E8B
:100B2700019360BCA3FF543F30E509541FFEE493D3
:100B3700A360010ECF54C025E060A840B8E493A39A
:100B4700FAE493A3F8E493A3C8C582C8CAC583CAC5
:100B5700F0A3C8C582C8CAC583CADFE9DEE780BE7D
:010CDB000018
:1005B400BB010689828A83E0225002E722BBFE0245
:0905C400E32289828A83E4932278
:1005CD00BB010CE58229F582E5833AF583E02250E3
:1005DD0006E92582F8E622BBFE06E92582F8E2222D
:0D05ED00E58229F582E5833AF583E4932247
:1005FA00BB010689828A83F0225002F722BBFE01E0
:02060A00F322D9
:10060C00FAE6FB0808E6F925F0F618E6CA3AF622EF
:10061C00D083D082F8E4937012740193700DA3A36D
:10062C0093F8740193F5828883E473740293686081
:06063C00EFA3A3A380DF81
:100C1000EFB40A07740D120C1B740A309811A899CE
:100C2000B8130CC2983098FDA899C298B811F63044
:070C300099FDC299F599221C
:00000001FF
