:10076E0050574D2044656D6F207374617274202E46
:04077E002E2E0A0011
:100003001207827F057E0012004312056C7BFF7A84
:1000130007796E1200C9539F7F759E0475B70175EA
:10002300B62C439D20539DBF759C32759B64759A76
:100033009675A3C87D017F0F12069112079480FE67
:0407B30041002800D9
:10069100CEEDCEEE64017038539DFDEF30E009439D
:1006A1009D045392DF439320EF30E109439D0853AA
:1006B10096EF439710EF30E209439F015392BF43F6
:1006C1009340EF30E326439F025392EF439310226E
:1006D100EF30E003539DFBEF30E103539DF7EF3023
:0C06E100E203539FFEEF30E303539FFD44
:0106ED0022EA
:0B079400439D80439D10D2EDD2AF22A8
:03005B000206EEAC
:0B06EE00C0E0C083C082C0D075D008FF
:1006F900439D10900028E0FFF59C8F9B8F9A8FA354
:04070900E02403F0F5
:09070D00D0D0D082D083D0E032BC
:1007820075A15575A1AAE5B954F84406F5B9E4F581
:02079200A122A2
:10073D00EF4E601505A105A105A105A105A105A116
:0A074D0005A1EF1F70EA1E80E722ED
:10004300AD07AC06ED4C600E7FE87E0312073DED75
:070053001D70F11C80EE227C
:0A079F004396C04397C053AAE72217
:10056C00C29FD29EC29DC2CDC2CC43878090000058
:10057C0012049D00000082E47B0AFAF9F890000056
:10058C00E0FCA3E0FDA3E0FEA3E0FF1203FF90005C
:10059C0004EBF0900000E0FCA3E0FDA3E0FEA3E080
:1005AC00FFE47B0AFAF9F81203FF900000120491A1
:1005BC00900004E0C3940574809480401F90000068
:1005CC00E0FCA3E0FDA3E0FEA3E02401FFE43EFE7B
:1005DC00E43DFDE43CFC900000120491E589540FCD
:1005EC004420F58943C9A0900000A3A3A3E0F40420
:0805FC00F58DD28ED299D29C3C
:0106040022D3
:0A07A90075A15575A1AA43B11022F5
:1007570075A15575A1AAEF600543B101800353B197
:07076700FEE4F5A1F5FF22FD
:0307B8008FFF228E
:03000000020605F0
:0C060500787FE4F6D8FD75812102064CD8
:1003C30075F008758200EF2FFFEE33FECD33CDCCF1
:1003D30033CCC58233C5829BED9AEC99E582984074
:1003E3000CF582EE9BFEED9AFDEC99FC0FD5F0D651
:1003F300E4CEFBE4CDFAE4CCF9A88222B800C1B97B
:100403000059BA002DEC8BF084CFCECDFCE5F0CBB8
:10041300F97818EF2FFFEE33FEED33FDEC33FCEBF1
:1004230033FB10D703994004EB99FB0FD8E5E4F9AC
:10043300FA227818EF2FFFEE33FEED33FDEC33FC99
:10044300C933C910D7059BE99A4007EC9BFCE99A8D
:10045300F90FD8E0E4C9FAE4CCFB2275F010EF2FD2
:10046300FFEE33FEED33FDCC33CCC833C810D707D2
:100473009BEC9AE899400AED9BFDEC9AFCE899F80D
:0E0483000FD5F0DAE4CDFBE4CCFAE4C8F922A0
:0C049100ECF0A3EDF0A3EEF0A3EFF022DE
:10049D00A8828583F0D083D0821204B41204B412E2
:1004AD0004B41204B4E473E493A3C583C5F0C58307
:1004BD00C8C582C8F0A3C583C5F0C583C8C582C8A9
:0104CD00220C
:10005E00E5102403F582E43400F583E005102290C8
:10006E000000300703900003E475F001120526022C
:10007E0004CE2000E97F2ED2008018EF540F24907A
:10008E00D43440D4FF30040BEF24BFB41A00500315
:10009E002461FFE511600215110514E514700205C7
:1000AE001330070E900000E475F001120526EF02E2
:1000BE0005140207167403D2078003E4C207F51075
:1000CE0090000012053DE4F511F513F514E51160ED
:1000DE00077F201200A180F57512FFC201C200C277
:1000EE0002C203C205C206C20812006DFF700D30B7
:1000FE0007057F001200B2AF14AE1322B4255FC203
:10010E00D5C20412006DFF24D0B40A00501A75F047
:10011E000A781130D50508B6FF0106C6A426F620CA
:10012E00D5047002D20380D924CFB41A00EF500444
:10013E00C2E5D2040202B3D20180C6D20080C0D280
:10014E000280BCD2D580BAD20580B47F201200A125
:10015E002002077401B5110040F112005EFF12007B
:10016E00A10200DBD208D206809512005EFB1200BF
:10017E005EFA12005EF94A4B700679847A037BFFB1
:10018E0020022EE511602A7E008E827583001204F5
:10019E00E760060EEE651270F0C2D5EBC0E0EAC065
:1001AE00E0E9C0E0EE1202FAD0E0F9D0E0FAD0E0D9
:1001BE00FB1204CEFF60AAEBC0E0EAC0E0E9C0E0AB
:1001CE001200A1D0E02401F9D0E03400FAD0E0FB17
:1001DE00E5120460DCD512D980877BFF7A0279F6AE
:1001EE00D202809C791080027908C206C20880086B
:1001FE00D2D5790A8004790AC2D5E512047002F5C7
:10020E0012E4FAFDFEFF12005EFC7B0820011312C1
:10021E00005EFD7B1030000A12005EFE12005EFFD3
:10022E007B20EC3382D592D55013C3E43000069F69
:10023E00FFE49EFEE42001039DFDE49CFCE4CBF86C
:10024E00C201EC700CCFCECDCCE824F8F870F38060
:10025E0017C3EF33FFEE33FEED33FDEC33FCEB3320
:10026E00FB994002FB0FD8E9EB300105F8D0E0C452
:10027E0048B201C0E00AEC4D4E4F78207B0070C2B0
:10028E00EAB5120040BCC0E01202FCD0F0D0E02073
:10029E000104C4C0E0C4B201C0F012008AD0F0D58F
:1002AE00F0EB0200DB12054601785301F2580149CA
:1002BE004C01454201F64F01FE4401FE49015E43E9
:0802CE0002045501E84601E8B5
:1002D6004501E84703A450014D2D01512E01742B11
:1002E600015523017220038D2A010D480000016C7F
:1002F6003F3F3F00790AA2D5200314300509B91003
:10030600020404B9080104A2D52006025001042003
:1003160002689202B511005034C0E07F2030031904
:100326007F30A20272067205500F120353C202C238
:1003360006C205C2087F30800F300503E9C0E0120F
:1003460000A1300503D0E0F9D0E0B511CC30051797
:100356007F30B9100C1200A17F583004077F7880D7
:1003660003B908031200A13002057F2D0200A17F08
:10037600202008F87F2B2006F322920280CF286ED9
:10038600756C6C2900D20112005E3001F8C201784A
:100396001130D50108F602010D2D504349581200BF
:1003A6005E2403B405004001E490039F931200927B
:0D03B600743A120092D2037511040201F294
:10061100020003E493A3F8E493A34003F68001F2FC
:1006210008DFF48029E493A3F85407240CC8C333EA
:10063100C4540F4420C8834004F456800146F6DFB9
:10064100E4800B01020408102040809007B3E47E8F
:10065100019360BCA3FF543F30E509541FFEE493AE
:10066100A360010ECF54C025E060A840B8E493A375
:10067100FAE493A3F8E493A3C8C582C8CAC583CAA0
:10068100F0A3C8C582C8CAC583CADFE9DEE780BE58
:0107B7000041
:1004CE00BB010689828A83E0225002E722BBFE022C
:0904DE00E32289828A83E493225F
:1004E700BB010CE58229F582E5833AF583E02250CA
:1004F70006E92582F8E622BBFE06E92582F8E22214
:0D050700E58229F582E5833AF583E493222D
:10051400BB010689828A83F0225002F722BBFE01C6
:02052400F322C0
:10052600F8E0FBA3A3E0F925F0F0E582158270025E
:070536001583E0FA38F02202
:09053D00EBF0A3EAF0A3E9F022BF
:10054600D083D082F8E4937012740193700DA3A344
:1005560093F8740193F5828883E473740293686058
:06056600EFA3A3A380DF58
:10071600EFB40A07740D120721740A309811A899CC
:10072600B8130CC2983098FDA899C298B811F63043
:0707360099FDC299F599221B
:00000001FF
