:1005C200554152542064656D6F20737461727420BA
:0505D2002E2E2E0A0090
:10055A001205D77F147E001205941204BB7BFF7A22
:10056A000579C21200651206138F081205F580F686
:080613003098FDC298AF992256
:0A05F500C2998F993099FDC2992236
:1005D70075A15575A1AAE5B954F84406F5B9E4F52E
:0205E700A1224F
:10057A00EF4E601505A105A105A105A105A105A1DB
:0A058A0005A1EF1F70EA1E80E722B2
:10059400AD07AC06ED4C600E7FE87E0312057AEDE4
:0705A4001D70F11C80EE2226
:0A05FF004396C04397C053AAE722B9
:1004BB00C29FD29EC29DC2CDC2CC438780E4750C35
:1004CB0082F50BF50AF5097B0AFAF9F8AF0CAE0BBE
:1004DB00AD0AAC0912039BAF038F0DAF0CAE0BAD86
:1004EB000AAC09E47B0AFAF9F812039B8F0C8E0B0A
:1004FB008D0A8C09C3E50D9405748094804011EF2F
:10050B002401F50CE43EF50BE43DF50AE43CF5095A
:10051B00E589540F4420F58943C9A0E50CF404F593
:07052B008DD28ED299D29C03
:0105320022A6
:0A06090075A15575A1AA43B1102296
:1005AB0075A15575A1AAEF600543B101800353B145
:0705BB00FEE4F5A1F5FF22AB
:03061B008FFF222C
:030000000205E90D
:0C05E900787FE4F6D8FD75812102055AE8
:10035F0075F008758200EF2FFFEE33FECD33CDCC55
:10036F0033CCC58233C5829BED9AEC99E5829840D8
:10037F000CF582EE9BFEED9AFDEC99FC0FD5F0D6B5
:10038F00E4CEFBE4CDFAE4CCF9A88222B800C1B9DF
:10039F000059BA002DEC8BF084CFCECDFCE5F0CB1D
:1003AF00F97818EF2FFFEE33FEED33FDEC33FCEB56
:1003BF0033FB10D703994004EB99FB0FD8E5E4F911
:1003CF00FA227818EF2FFFEE33FEED33FDEC33FCFE
:1003DF00C933C910D7059BE99A4007EC9BFCE99AF2
:1003EF00F90FD8E0E4C9FAE4CCFB2275F010EF2F37
:1003FF00FFEE33FEED33FDCC33CCC833C810D70737
:10040F009BEC9AE899400AED9BFDEC9AFCE899F871
:0E041F000FD5F0DAE4CDFBE4CCFAE4C8F92204
:10000300E518240CF8E60518227809300702780C65
:10001300E475F00112048502042D2000EB7F2ED23B
:10002300008018EF540F2490D43440D4FF30040BD5
:10003300EF24BFB41A0050032461FFE519600215D1
:1000430019051CE51C7002051B30070D7809E475C2
:10005300F001120485EF0204730205337403D2071F
:100063008003E4C207F5188B098A0A890BE4F519A2
:10007300F51BF51CE51960077F2012003E80F5751E
:100083001AFFC201C200C202C203C205C206C208ED
:1000930012000CFF700D3007057F0012004FAF1CDC
:1000A300AE1B22B4255FC2D5C20412000CFF24D0BC
:1000B300B40A00501A75F00A781930D50508B6FF4E
:1000C3000106C6A426F620D5047002D20380D924E3
:1000D300CFB41A00EF5004C2E5D20402024FD2019A
:1000E30080C6D20080C0D20280BCD2D580BAD205ED
:1000F30080B47F2012003E2002077401B51900402E
:10010300F1120003FF12003E020077D208D20680EC
:1001130095120003FB120003FA120003F94A4B7015
:100123000679207A037BFF20022EE519602A7E00E0
:100133008E8275830012044660060EEE651A70F017
:10014300C2D5EBC0E0EAC0E0E9C0E0EE120296D00F
:10015300E0F9D0E0FAD0E0FB12042DFF60AAEBC077
:10016300E0EAC0E0E9C0E012003ED0E02401F9D0AB
:10017300E03400FAD0E0FBE51A0460DCD51AD9803C
:10018300877BFF7A027992D202809C791080027970
:1001930008C206C2088008D2D5790A8004790AC247
:1001A300D5E51A047002F51AE4FAFDFEFF12000306
:1001B300FC7B08200113120003FD7B1030000A12A0
:1001C3000003FE120003FF7B20EC3382D592D5504F
:1001D30013C3E43000069FFFE49EFEE42001039D69
:1001E300FDE49CFCE4CBF8C201EC700CCFCECDCC8B
:1001F300E824F8F870F38017C3EF33FFEE33FEED16
:1002030033FDEC33FCEB33FB994002FB0FD8E9EBF6
:10021300300105F8D0E0C448B201C0E00AEC4D4E0D
:100223004F78207B0070C2EAB51A0040BCC0E012D0
:100233000298D0F0D0E0200104C4C0E0C4B201C0F1
:10024300F0120027D0F0D5F0EB02007712049501ED
:100253001453018E5800E54C00E14201924F019A7C
:0F02630044019A4900FA4301A0550184460184E1
:100272004501844703405000E92D00ED2E01102B6B
:1002820000F123010E2003292A00A94800000108D9
:100292003F3F3F00790AA2D5200314300509B91067
:1002A200020404B9080104A2D52006025001042068
:1002B20002689202B519005034C0E07F2030031961
:1002C2007F30A20272067205500F1202EFC202C202
:1002D20006C205C2087F30800F300503E9C0E01274
:1002E200003E300503D0E0F9D0E0B519CC30051757
:1002F2007F30B9100C12003E7F583004077F78809F
:1003020003B9080312003E3002057F2D02003E7F32
:10031200202008F87F2B2006F322920280CF286E3D
:10032200756C6C2900D2011200033001F8C2017809
:100332001930D50108F60200A92D50434958120080
:10034200032403B405004001E490033B9312002F01
:0D035200743A12002FD20375190402018EB7
:10042D00BB010689828A83E0225002E722BBFE02CD
:09043D00E32289828A83E4932200
:10044600BB010CE58229F582E5833AF583E022506B
:1004560006E92582F8E622BBFE06E92582F8E222B5
:0D046600E58229F582E5833AF583E49322CF
:10047300BB010689828A83F0225002F722BBFE0168
:02048300F32262
:10048500FAE6FB0808E6F925F0F618E6CA3AF62278
:10049500D083D082F8E4937012740193700DA3A3F6
:1004A50093F8740193F5828883E47374029368600A
:0604B500EFA3A3A380DF0A
:10053300EFB40A07740D12053E740A309811A89996
:10054300B8130CC2983098FDA899C298B811F63028
:0705530099FDC299F5992200
:00000001FF
