:1007A80049324353207374617274202E2E2E0A002E
:1007B8006C656E2025640A002530327820000A0016
:100718006020002000000000000000000000000031
:1007280000000000000000000000000000000000C1
:100738000000000060200000000000000000000031
:1007480000000000000000000000000000000000A1
:100758000000000000000000021000000214000069
:040768000212000079
:10076D00E4FFEFC3942074809480502074202FF503
:10077D0082E43400F58374FFF0EF4480FE74002FA3
:10078D00F582E43400F583EEF00F80D64392C0433A
:0A079D0093C075A55675A4E9D2E9D2
:0107A700222F
:03003B0002061B9F
:10061B00C0E0C083C082C0D075D008E5A030E41222
:10062B0075100075110075120075130075140075A7
:10063B001500E5A0540F64037002802FE5A0540F42
:10064B006405701FAFA674202FF582E43400F58388
:10065B00E5A7F07512007513010511E511702A0558
:10066B00108026E5A0540F64077011AFA674002FFD
:10067B00F582E43400F583E0F5A7800DE5A0540F77
:10068B00640C7005F51475150143A0F0D0D0D08221
:05069B00D083D0E03225
:1004F6001208107F147E001207E21206A012076D82
:100506007BFF7A0779A81200A0D2AFC2AEE51564C8
:1005160001451470F8E5136401451270F0F514F501
:1005260015F512F5137BFF7A0779B8851026851124
:10053600271200A0E4F522C3E5229420748094805B
:10054600501E7BFF7A0779C074202522F582E43499
:1005560000F583E0752600F5271200A0052280D756
:100566007BFF7A0779C61200A0E4F522C3E5229440
:100576002074809480509674202522F582E43400FD
:09058600F58374FFF0052280E307
:1008100075A15575A1AAE5B954F84406F5B9E4F5F2
:02082000A12213
:1007C800EF4E601505A105A105A105A105A105A18B
:0A07D80005A1EF1F70EA1E80E72262
:1007E200AD07AC06ED4C600E7FE87E031207C8ED44
:0707F2001D70F11C80EE22D6
:0A002A004396C04397C053AAE72293
:1006A000C29FD29EC29DC2CDC2CC438780E4752634
:1006B00082F525F524F5237B0AFAF9F8AF26AE2555
:1006C000AD24AC231203D6AF038F27AF26AE25ADE2
:1006D00024AC23E47B0AFAF9F81203D68F268E2580
:1006E0008D248C23C3E5279405748094804011EFFA
:1006F0002401F526E43EF525E43DF524E43CF5230C
:10070000E589540F4420F58943C9A0E526F404F592
:070710008DD28ED299D29C1C
:0107170022BF
:0A08220075A15575A1AA43B110227B
:1007F90075A15575A1AAEF600543B101800353B1F5
:07080900FEE4F5A1F5FF225A
:030034008FFF2219
:0300000002058F67
:0C058F00787FE4F6D8FD7581360205D6B1
:10039A0075F008758200EF2FFFEE33FECD33CDCC1A
:1003AA0033CCC58233C5829BED9AEC99E58298409D
:1003BA000CF582EE9BFEED9AFDEC99FC0FD5F0D67A
:1003CA00E4CEFBE4CDFAE4CCF9A88222B800C1B9A4
:1003DA000059BA002DEC8BF084CFCECDFCE5F0CBE2
:1003EA00F97818EF2FFFEE33FEED33FDEC33FCEB1B
:1003FA0033FB10D703994004EB99FB0FD8E5E4F9D6
:10040A00FA227818EF2FFFEE33FEED33FDEC33FCC2
:10041A00C933C910D7059BE99A4007EC9BFCE99AB6
:10042A00F90FD8E0E4C9FAE4CCFB2275F010EF2FFB
:10043A00FFEE33FEED33FDCC33CCC833C810D707FB
:10044A009BEC9AE899400AED9BFDEC9AFCE899F836
:0E045A000FD5F0DAE4CDFBE4CCFAE4C8F922C9
:10003E00E5322426F8E605322278233007027826A8
:10004E00E475F0011204C00204682000EB7F2ED28A
:10005E00008018EF540F2490D43440D4FF30040B9A
:10006E00EF24BFB41A0050032461FFE5336002157C
:10007E00330536E5367002053530070D7823E47505
:10008E00F0011204C0EF0204AE0200037403D207A3
:10009E008003E4C207F5328B238A248925E4F533E5
:1000AE00F535F536E53360077F2012007980F5755A
:1000BE0034FFC201C200C202C203C205C206C20898
:1000CE00120047FF700D3007057F0012008AAF3611
:1000DE00AE3522B4255FC2D5C204120047FF24D02C
:1000EE00B40A00501A75F00A783330D50508B6FFF9
:1000FE000106C6A426F620D5047002D20380D924A8
:10010E00CFB41A00EF5004C2E5D20402028AD20123
:10011E0080C6D20080C0D20280BCD2D580BAD205B1
:10012E0080B47F201200792002077401B53300409D
:10013E00F112003EFF1200790200B2D208D2068000
:10014E009512003EFB12003EFA12003EF94A4B7029
:10015E0006795B7A037BFF20022EE533602A7E0050
:10016E008E8275830012048160060EEE653470F087
:10017E00C2D5EBC0E0EAC0E0E9C0E0EE1202D1D099
:10018E00E0F9D0E0FAD0E0FB120468FF60AAEBC001
:10019E00E0EAC0E0E9C0E0120079D0E02401F9D035
:1001AE00E03400FAD0E0FBE5340460DCD534D980CD
:1001BE00877BFF7A0279CDD202809C7910800279FA
:1001CE0008C206C2088008D2D5790A8004790AC20C
:1001DE00D5E534047002F534E4FAFDFEFF12003E5C
:1001EE00FC7B0820011312003EFD7B1030000A122A
:1001FE00003EFE12003EFF7B20EC3382D592D5509E
:10020E0013C3E43000069FFFE49EFEE42001039D2D
:10021E00FDE49CFCE4CBF8C201EC700CCFCECDCC4F
:10022E00E824F8F870F38017C3EF33FFEE33FEEDDA
:10023E0033FDEC33FCEB33FB994002FB0FD8E9EBBB
:10024E00300105F8D0E0C448B201C0E00AEC4D4ED2
:10025E004F78207B0070C2EAB5340040BCC0E0127B
:10026E0002D3D0F0D0E0200104C4C0E0C4B201C07B
:10027E00F0120062D0F0D5F0EB0200B21204D00101
:10028E004F5301C95801204C011C4201CD4F01D5DD
:0F029E004401D54901354301DB5501BF4601BF7E
:1002AD004501BF47037B5001242D01282E014B2B07
:1002BD00012C2301492003642A00E4480000014376
:1002CD003F3F3F00790AA2D5200314300509B9102C
:1002DD00020404B9080104A2D5200602500104202D
:1002ED0002689202B533005034C0E07F203003190C
:1002FD007F30A20272067205500F12032AC202C28B
:10030D0006C205C2087F30800F300503E9C0E01238
:10031D000079300503D0E0F9D0E0B533CC300517C6
:10032D007F30B9100C1200797F583004077F788028
:10033D0003B908031200793002057F2D0200797F81
:10034D00202008F87F2B2006F322920280CF286E02
:10035D00756C6C2900D20112003E3001F8C2017893
:10036D003330D50108F60200E42D504349581200F0
:10037D003E2403B405004001E49003769312006A15
:0D038D00743A12006AD2037533040201C9EC
:10059B000204F6E493A3F8E493A34003F68001F27C
:1005AB0008DFF48029E493A3F85407240CC8C33361
:1005BB00C4540F4420C8834004F456800146F6DF30
:1005CB00E4800B0102040810204080900718E47EA1
:1005DB00019360BCA3FF543F30E509541FFEE49325
:1005EB00A360010ECF54C025E060A840B8E493A3EC
:1005FB00FAE493A3F8E493A3C8C582C8CAC583CA17
:10060B00F0A3C8C582C8CAC583CADFE9DEE780BECE
:01076C00008C
:10046800BB010689828A83E0225002E722BBFE0292
:09047800E32289828A83E49322C5
:10048100BB010CE58229F582E5833AF583E0225030
:1004910006E92582F8E622BBFE06E92582F8E2227A
:0D04A100E58229F582E5833AF583E4932294
:1004AE00BB010689828A83F0225002F722BBFE012D
:0204BE00F32227
:1004C000FAE6FB0808E6F925F0F618E6CA3AF6223D
:1004D000D083D082F8E4937012740193700DA3A3BB
:1004E00093F8740193F5828883E4737402936860CF
:0604F000EFA3A3A380DFCF
:10000300EFB40A07740D12000E740A309811A89900
:10001300B8130CC2983098FDA899C298B811F6305D
:0700230099FDC299F5992235
:00000001FF
