:090B5B004348353433440D0A000F
:10090D00120B0212070E7F0A7E00120AD47BFF7AA9
:10091D000B795B1200C1120960E5C630E00AE5C72C
:10092D0020E00553C2FB8018E5C730E00AE5C6207C
:10093D00E00543C20480097F057E00120AD480D9E8
:10094D0043C208120B29D2ECD2AF7F0A7E00120AE5
:03095D00D480F74C
:1005B000E490009DF0A3F07B017A00795A900055F9
:1005C00004F0A3EAF0A3E9F09000011203D4FFC401
:1005D000131313540164017003020665EFC454073A
:1005E0007003020665900055E0FBA3E0FAA3E0F972
:1005F0001203BB541F14706D9000557401F0A37466
:1006000000F0A37478F09000A47401F0A37400F0DB
:10061000A3747AF01207A7900055E0FBA3E0FAA3B9
:10062000E02401F9E43AFA1203BB548F4410120497
:1006300001900055E0FBA3E0FAA3E0F91203BB54DC
:10064000E044021204019000A4E0FBA3E0FAA3E05E
:10065000F912051E2CB1041190009DE4F0A374045E
:06066000F0A37406F02275
:100A2800EFFB7A007009E58954F04DF5898027EBD2
:100A380064014A7011CFEDCFEFC454F0FFE589543B
:100A48000F4FF5898010EF64027008C2CDC2CCC286
:090A5800C880037F00227F012207
:1009EE00C3E49DFDE49CFCEF700ACFEDCFEFF58ADA
:1009FE00ECF58C22EF6401700ACFEDCFEFF58BECA6
:100A0E00F58D22EF64027011CFEDCFEFF5CC8FCACA
:090A1E00CEECCEEEFFF5CD8FCB3E
:010A270022AC
:100B1700C2CDC2CCC2C9D2CBD2C8EF25E025E042B4
:020B2700C922E1
:100ABA00C2CDC2CCD2C8D2CBC2C9EF25E025E0FF55
:0A0ACA00E5C954FD4F4401F5C922AF
:040003005253540000
:0300530002083E62
:10083E00C0E0C0F0C083C082C0D075D00830C60CF6
:10084E007BFF7A0079031200C1120B2930C71FE516
:10085E00C220E20553C6BF800353C7BF900098E085
:10086E0060097DA07C0FE4FF1209EE120B2930C542
:10087E001CE5C0540364017011900098E0600512ED
:10088E00000E80061208A61205B0120B29D0D0D089
:08089E0082D083D0F0D0E032DB
:03000B0002066684
:10066600C0E0C0F0C083C082C0D075D000C000C05A
:1006760001C002C003C004C005C006C007900099AF
:10068600E060187B017A007958A3E090002CF07D99
:10069600021209C2900099E4F08049900098E06047
:1006A6001590009BE014F0E060051209AF803590CC
:1006B6000098E4F0802E90009DE07002A3E0602494
:1006C60090009EE024FFF090009DE034FFF0E07083
:1006D60002A3E0700F90009B7403F01209AF900024
:1006E600987401F07DA07C0FE4FF1209EED007D0CC
:1006F60006D005D004D003D002D001D000D0D0D08F
:0807060082D083D0F0D0E03274
:1008A600E5BE70627DC8FCFF1209EE7B017A007915
:1008B6005A900055EBF0A3EAF0A3E9F0900001127C
:1008C60003D4FFC313540790009CF0900099740161
:1008D600F0E4A3F090005504F0A37400F0A374585C
:1008E600F01207A790009CE0540725E0FF90005502
:1008F600E0FBA3E0FAA3E02401F9E43AFA1203BB11
:0709060054F14F120401221D
:10000E007B017A00795A900055EBF0A3EAF0A3E950
:10001E00F09000011203D4C3135407FF900097E031
:10002E006F701D900055E0FBA3E0FAA3E0F91203F8
:10003E00BB541F64017009900097E004F0E4A3F034
:01004E00228F
:1007A700900055E0FBA3E0FAA3E02401F9E43AFA4C
:1007B7001203BB547F120401548FFF1204019000EF
:1007C70097E0540725E0FEEF54F14E120401900024
:1007D70055E0FBA3E0FAA3E0F91203BB543F444002
:1007E700120401900055E0FBA3E0FAA3E0F912031D
:1007F700BB54E044011204019000A1E05401C4334A
:1008070054E0FF900055E0FBA3E0FAA3E0F91203E0
:10081700BB54DF4F1204019000A0E05401FF900089
:1008270055E0FBA3E0FAA3E02401F9E43AFA120346
:07083700BB54FE4F02040157
:100960005392FC5393FC75C78275C682E49000983D
:10097000F0A3F090009BF0900097F090009CF09016
:1009800000A0F0A3F0A304F0A3F0E490009DF0A376
:10099000F0900096745AF053C9EF7D01E4FF120AFB
:0F09A000287DA07C0FE4FF1209EED2A9D28C2291
:100B290075C16043C20253C2FC75C45A75BB77D202
:020B3900C222D6
:1009AF007B017A00797890009FE0FD90009AE090AB
:0309BF00002CF019
:1009C200C2C275C18090002CE0F5BEAF058FBD4359
:1009D200C20353C2FDAF018FC475BB4FE5C220E213
:0C09E2000543C640800343C740D2C22238
:100B020075A15575A1AA43BA08E5B954F84407F589
:050B1200B9E4F5A12289
:100A6100EF4E602D05A105A105A105A105A105A1D7
:100A710005A105A105A105A105A105A105A105A145
:100A810005A105A105A105A105A1EF1F70D21E8039
:020A9100CF2272
:100AD400AD07AC06ED4C600E7FE87E03120A61EDB3
:070AE4001D70F11C80EE22E1
:0A0B47004396C04397C053AAE7226B
:10070E00C29FD29EC29DC2CDC2CC43878090002D87
:10071E001204ED00000104E47B0AFAF9F890002DB2
:10072E00E0FCA3E0FDA3E0FEA3E0FF12044F900067
:10073E0031EBF090002DE0FCA3E0FDA3E0FEA3E082
:10074E00FFE47B0AFAF9F812044F90002D1204E12F
:10075E00900031E0C3940574809480401F90002D6A
:10076E00E0FCA3E0FDA3E0FEA3E02401FFE43EFED7
:10077E00E43DFDE43CFC90002D1204E1E589540FAC
:10078E004420F58943C9A090002DA3A3A3E0F4044F
:08079E00F58DD28ED299D29C98
:0107A6002230
:0A0B510075A15575A1AA43B1102249
:100AEB0075A15575A1AAEF600543B101800353B100
:070AFB00FEE4F5A1F5FF2266
:030007008FFF2246
:03000000020B3BB5
:0C0B3B00787FE4F6D8FD75812202090DD8
:1003BB00BB010689828A83E0225002E722BBFE0240
:0903CB00E32289828A83E4932273
:1003D400BB010CE58229F582E5833AF583E02250DE
:1003E40006E92582F8E622BBFE06E92582F8E22228
:0D03F400E58229F582E5833AF583E4932242
:10040100BB010689828A83F0225002F722BBFE01DA
:02041100F322D4
:1004130075F008758200EF2FFFEE33FECD33CDCCA0
:1004230033CCC58233C5829BED9AEC99E582984023
:100433000CF582EE9BFEED9AFDEC99FC0FD5F0D600
:10044300E4CEFBE4CDFAE4CCF9A88222B800C1B92A
:100453000059BA002DEC8BF084CFCECDFCE5F0CB68
:10046300F97818EF2FFFEE33FEED33FDEC33FCEBA1
:1004730033FB10D703994004EB99FB0FD8E5E4F95C
:10048300FA227818EF2FFFEE33FEED33FDEC33FC49
:10049300C933C910D7059BE99A4007EC9BFCE99A3D
:1004A300F90FD8E0E4C9FAE4CCFB2275F010EF2F82
:1004B300FFEE33FEED33FDCC33CCC833C810D70782
:1004C3009BEC9AE899400AED9BFDEC9AFCE899F8BD
:0E04D3000FD5F0DAE4CDFBE4CCFAE4C8F92250
:0C04E100ECF0A3EDF0A3EEF0A3EFF0228E
:1004ED00A8828583F0D083D08212050412050412F0
:1004FD000504120504E473E493A3C583C5F0C58315
:10050D00C8C582C8F0A3C583C5F0C583C8C582C858
:01051D0022BB
:10051E00BB010789828A830204ED5005E9F80205C2
:0A052E0038BBFE05E9F80205512272
:10005600E5152430F582E43400F583E00515229099
:10006600002D301003900030E475F00112056A028D
:1000760003BB2009E97F2ED2098018EF540F249084
:10008600D43440D4FF300D0BEF24BFB41A00500314
:100096002461FFE516600215160519E519700205BB
:1000A6001830100E90002DE475F00112056AEF026B
:1000B6000401020A937403D2108003E4C210F515FA
:1000C60090002D120581E4F516F518F519E5166070
:1000D600077F2012009980F57517FFC20AC209C270
:1000E6000BC20CC20EC20FC211120065FF700D309A
:1000F60010057F001200AAAF19AE1822B4255FC200
:10010600D5C20D120065FF24D0B40A00501A75F04E
:100116000A781630D50508B6FF0106C6A426F620CD
:10012600D5047002D20C80D924CFB41A00EF500443
:10013600C2E5D20D0202ABD20A80C6D20980C0D275
:100146000B80BCD2D580BAD20E80B47F2012009923
:10015600200B077401B5160040F1120056FF12007D
:10016600990200D3D211D20F8095120056FB1200CD
:1001760056FA120056F94A4B7006797C7A037BFFD1
:10018600200B2EE516602A7E008E827583001203F0
:10019600D460060EEE651770F0C2D5EBC0E0EAC07B
:1001A600E0E9C0E0EE1202F2D0E0F9D0E0FAD0E0E9
:1001B600FB1203BBFF60AAEBC0E0EAC0E0E9C0E0C7
:1001C600120099D0E02401F9D0E03400FAD0E0FB27
:1001D600E5170460DCD517D980877BFF7A0279EEB4
:1001E600D20B809C791080027908C20FC211800858
:1001F600D2D5790A8004790AC2D5E517047002F5CA
:1002060017E4FAFDFEFF120056FC7B08200A1312C3
:100216000056FD7B1030090A120056FE120056FFEA
:100226007B20EC3382D592D55013C3E43009069F68
:10023600FFE49EFEE4200A039DFDE49CFCE4CBF86B
:10024600C20AEC700CCFCECDCCE824F8F870F3805F
:1002560017C3EF33FFEE33FEED33FDEC33FCEB3328
:10026600FB994002FB0FD8E9EB300A05F8D0E0C451
:1002760048B20AC0E00AEC4D4E4F78207B0070C2AF
:10028600EAB5170040BCC0E01202F4D0F0D0E0207E
:100296000A04C4C0E0C4B20AC0F0120082D0F0D58D
:1002A600F0EB0200D312058A01705301EA580141AE
:1002B6004C013D4201EE4F01F64401F64901564319
:0802C60001FC5501E04601E0D6
:1002CE004501E047039C5001452D01492E016C2B41
:1002DE00014D23016A2003852A01054800000164AF
:1002EE003F3F3F00790AA2D5200C14300E09B910F9
:1002FE00020404B9080104A2D5200F025001042003
:10030E000B68920BB516005034C0E07F20300C19EC
:10031E007F30A20B720F720E500F12034BC20BC224
:10032E000FC20EC2117F30800F300E03E9C0E012F3
:10033E000099300E03D0E0F9D0E0B516CC300E1790
:10034E007F30B9100C1200997F58300D077F7880DE
:10035E0003B90803120099300B057F2D0200997F17
:10036E00202011F87F2B200FF322920B80CF286EC6
:10037E00756C6C2900D20A120056300AF8C20A783F
:10038E001630D50108F60201052D504349581200CA
:10039E00562403B405004001E49003979312008A9B
:0D03AE00743A12008AD20C7516040201EA9E
:10053800D083D082E493F608740193F6087402938A
:09054800F608740393F6740473C1
:10055100D083D082E493F208740193F20874029379
:09056100F208740393F2740473B0
:10056A00F8E0FBA3A3E0F925F0F0E582158270021A
:07057A001583E0FA38F022BE
:09058100EBF0A3EAF0A3E9F0227B
:10058A00D083D082F8E4937012740193700DA3A300
:10059A0093F8740193F5828883E473740293686014
:0605AA00EFA3A3A380DF14
:100A9300EFB40A07740D120A9E740A309811A899CC
:100AA300B8130CC2983098FDA899C298B811F630C3
:070AB30099FDC299F599229B
:00000001FF
