:10099100A2AF9200C2AFCF54C0CFCECEC3EE943837
:1009A1004009EE943950047C0480027C0875A155FD
:1009B10075A1AAEC42B18E858F84758F80E4F58E86
:1009C100E58630E6107586A6E58630E1047D028075
:1009D10006E4FD80027D0175A15575A1AAECF452D2
:0809E100B1A20092AFCFEDCFEF
:0109E90022EB
:1009EA00A2AF9209C2AFC3EE94384009EE943950CF
:1009FA00047B0480027B0875A15575A1AAEB42B15C
:100A0A008E858F84758F808D8EE58630E61075868B
:100A1A009AE58630E1047C028006E4FC80027C01CF
:100A2A0075A15575A1AAEBF452B1A20992AFCFEC08
:010A3A00CFEC
:010A3B002298
:060891008B0B8F828E83A9
:10089700A2AF9200C2AFC3E5839438400AE58394C0
:1008A70039500479048002790875A15575A1AAE920
:1008B70042B1AF82EF543FFFC374409FFEE50BD3B5
:1008C7009E40037FFC22CEEDCEEE543F6F60037F48
:1008D700FB22858385858284E50B2F14F58F8E8215
:1008E700CEECCECFEDCFEEF583E58630E6107586FC
:1008F7009AE58630E1047A028006E4FA80027A01FA
:1009070075A15575A1AAE9F452B1A20092AFCFEA39
:01091700CF10
:0109180022BC
:0A0A3C008E0B8F0C8B0D8A0E890FB4
:100A4600E4FFFEEF65117003EE65106033850C82DE
:100A5600850B83E493AB0DAA0EA90F8F828E8312AA
:100A660005D0E50CF47003E50BF470050FBF00002C
:100A760022050CE50C7002050B0FBF00010E80C3AA
:010A8600224D
:100ACB00A2AF920AC2AF75A15575A1AA43B104EFAB
:100ADB00FB7585008B84758F808D8E758699E58669
:100AEB0030E1047E028002E4FE75A15575A1AA5384
:090AFB00B1FBA20A92AFCFEECFCD
:010B040022CE
:100A87007585008F8475868DAF8EAE8FE48F0E8E41
:100A97000DF50CF50BAD0CAC0B78101206C08F0ED4
:100AA7008E0D8D0C8C0BAF84AE85E50E4FF50EE5E4
:100AB7000D4EF50DE50CF50CE50BF50BAF0EAE0D78
:030AC700AD0CFC77
:010ACA002209
:10078D00466C617368526F6D2064656D6F20737474
:10079D00617274202E2E2E0A0044617461466C61C4
:1007AD0073682045726173652E2E2E0A0025303236
:1007BD0078200A0044617461466C61736820577239
:1007CD006974652E2E2E0A0044617461466C617346
:1007DD006820526561642E2E2E0A007265616C20B0
:1007ED006C656E3A25640A0025303278200045721A
:1007FD0072204F66667365743A253032780A000AA6
:10080D000A00436F6465466C6173682045726173BD
:10081D00652E2E2E0A00436F6465466C6173682049
:10082D0057726974652E2E2E0A00436F6465466CEF
:10083D0061736820526561642E2E2E0A00436F6E1F
:10084D0066696720496E666F726D6174696F6E209F
:10085D00526561642E2E2E0A006366673A2530328A
:10086D007820253032780A00556E697175652049FA
:10087D00442E2E2E0A003078256C782000307825F5
:04088D006C780A0079
:10035F00120B747F147E00120B461209197BFF7A61
:10036F0007798D120065E4F509E5096440601274A0
:10037F00002509F582E43400F583E509F0050980CD
:10038F00E87E007F407D007B017A0079401206D322
:10039F007BFF7A0779A61200657F007E38120991DC
:1003AF008F08EF600E7BFF7A0779BA750E00F50F95
:1003BF001200657BFF7A0779C11200657C007D0012
:1003CF007B407F007E381208918F08EF600E7BFF15
:1003DF007A0779BA750E00F50F1200657BFF7A0761
:1003EF0079D51200657B017A00794075100075117F
:1003FF00407F007E38120A3C8F0A7BFF7A0779E82C
:10040F00750E008F0F120065E4F509E509650A60A6
:10041F00487BFF7A0779F574402509F582E43400AB
:10042F00F583E0750E00F50F12006574002509F5D0
:10043F0082E43400F583E0FF74402509F582E4344B
:10044F0000F583E06F600E7BFF7A0779FB85090E5D
:10045F0012006580FE050980B27BFF7A08790C12C5
:10046F0000657E007F407D007B017A007940120697
:10047F00D37BFF7A08790F1200657FC07E37120990
:10048F00918F08EF600E7BFF7A0779BA750E00F532
:10049F000F1200657BFF7A0879231200657C007DBF
:1004AF00007B407FC07E371208918F08EF600E7B74
:1004BF00FF7A0779BA750E00F50F1200657BFF7A88
:1004CF000879371200657B017A0079407510007545
:1004DF0011407FC07E37120A3C8F0A7BFF7A077963
:1004EF00E8750E008F0F120065E4F509E509650A3E
:1004FF0060487BFF7A0779F574402509F582E4346B
:10050F0000F583E0750E00F50F12006574002509E4
:10051F00F582E43400F583E0FF74402509F582E4A9
:10052F003400F583E06F600E7BFF7A0779FB850956
:10053F000E12006580FE050980B27BFF7A08790CE8
:10054F001200657BFF7A08794A1200657B017A00F9
:10055F0079407510007511027FFE7E3F120A3C8FA5
:10056F000A7BFF7A0779E8750E008F0F1200657B03
:10057F00FF7A087966900041E0750E00F50F900044
:10058F0040E0751000F5111200657BFF7A08797550
:10059F001200657F14120A878F118E108D0F8C0E2B
:1005AF007BFF7A0879831200657F10120A878F11FB
:1005BF008E108D0F8C0E7BFF7A08798A1200658062
:0105CF00FE2D
:100B740075A15575A1AAE5B954F84406F5B9E4F58B
:020B8400A122AC
:100B2C00EF4E601505A105A105A105A105A105A123
:0A0B3C0005A1EF1F70EA1E80E722FA
:100B4600AD07AC06ED4C600E7FE87E03120B2CED74
:070B56001D70F11C80EE226E
:0A0B92004396C04397C053AAE72220
:10091900C29FD29EC29DC2CDC2CC438780E4750ED0
:1009290082F50DF50CF50B7B0AFAF9F8AF0EAE0D51
:10093900AD0CAC0B12062EAF038F0FAF0EAE0DAD83
:100949000CAC0BE47B0AFAF9F812062E8F0E8E0D09
:100959008D0C8C0BC3E50F9405748094804011EFC6
:100969002401F50EE43EF50DE43DF50CE43CF50BF0
:10097900E589540F4420F58943C9A0E50EF404F52F
:070989008DD28ED299D29CA1
:010990002244
:0A0B9C0075A15575A1AA43B11022FE
:100B5D0075A15575A1AAEF600543B101800353B18D
:070B6D00FEE4F5A1F5FF22F3
:030BA6008FFF229C
:03000000020B866A
:0C0B8600787FE4F6D8FD75812102035F42
:1005D000F8BB010DE58229F582E5833AF583E8F061
:1005E000225006E92582C8F622BBFE05E92582C80D
:0205F000F222F5
:1005F20075F008758200EF2FFFEE33FECD33CDCCC0
:1006020033CCC58233C5829BED9AEC99E582984042
:100612000CF582EE9BFEED9AFDEC99FC0FD5F0D61F
:10062200E4CEFBE4CDFAE4CCF9A88222B800C1B949
:100632000059BA002DEC8BF084CFCECDFCE5F0CB87
:10064200F97818EF2FFFEE33FEED33FDEC33FCEBC0
:1006520033FB10D703994004EB99FB0FD8E5E4F97B
:10066200FA227818EF2FFFEE33FEED33FDEC33FC68
:10067200C933C910D7059BE99A4007EC9BFCE99A5C
:10068200F90FD8E0E4C9FAE4CCFB2275F010EF2FA1
:10069200FFEE33FEED33FDCC33CCC833C810D707A1
:1006A2009BEC9AE899400AED9BFDEC9AFCE899F8DC
:0E06B2000FD5F0DAE4CDFBE4CCFAE4C8F9226F
:1006C000E8600FEFC333FFEE33FEED33FDEC33FC98
:0306D000D8F1223C
:10000300E51A240EF8E6051A22780B300702780E5B
:10001300E475F0011207570206FF2000EB7F2ED292
:10002300008018EF540F2490D43440D4FF30040BD5
:10003300EF24BFB41A0050032461FFE51B600215CF
:100043001B051EE51E7002051D30070D780BE475B8
:10005300F001120757EF020745020B057403D2079D
:100063008003E4C207F51A8B0B8A0C890DE4F51B98
:10007300F51DF51EE51B60077F2012003E80F57518
:100083001CFFC201C200C202C203C205C206C208EB
:1000930012000CFF700D3007057F0012004FAF1EDA
:1000A300AE1D22B4255FC2D5C20412000CFF24D0BA
:1000B300B40A00501A75F00A781B30D50508B6FF4C
:1000C3000106C6A426F620D5047002D20380D924E3
:1000D300CFB41A00EF5004C2E5D20402024FD2019A
:1000E30080C6D20080C0D20280BCD2D580BAD205ED
:1000F30080B47F2012003E2002077401B51B00402C
:10010300F1120003FF12003E020077D208D20680EC
:1001130095120003FB120003FA120003F94A4B7015
:100123000679207A037BFF20022EE51B602A7E00DE
:100133008E8275830012071860060EEE651C70F040
:10014300C2D5EBC0E0EAC0E0E9C0E0EE120296D00F
:10015300E0F9D0E0FAD0E0FB1206FFFF60AAEBC0A3
:10016300E0EAC0E0E9C0E012003ED0E02401F9D0AB
:10017300E03400FAD0E0FBE51C0460DCD51CD98038
:10018300877BFF7A027992D202809C791080027970
:1001930008C206C2088008D2D5790A8004790AC247
:1001A300D5E51C047002F51CE4FAFDFEFF12000302
:1001B300FC7B08200113120003FD7B1030000A12A0
:1001C3000003FE120003FF7B20EC3382D592D5504F
:1001D30013C3E43000069FFFE49EFEE42001039D69
:1001E300FDE49CFCE4CBF8C201EC700CCFCECDCC8B
:1001F300E824F8F870F38017C3EF33FFEE33FEED16
:1002030033FDEC33FCEB33FB994002FB0FD8E9EBF6
:10021300300105F8D0E0C448B201C0E00AEC4D4E0D
:100223004F78207B0070C2EAB51C0040BCC0E012CE
:100233000298D0F0D0E0200104C4C0E0C4B201C0F1
:10024300F0120027D0F0D5F0EB0200771207670118
:100253001453018E5800E54C00E14201924F019A7C
:0F02630044019A4900FA4301A0550184460184E1
:100272004501844703405000E92D00ED2E01102B6B
:1002820000F123010E2003292A00A94800000108D9
:100292003F3F3F00790AA2D5200314300509B91067
:1002A200020404B9080104A2D52006025001042068
:1002B20002689202B51B005034C0E07F203003195F
:1002C2007F30A20272067205500F1202EFC202C202
:1002D20006C205C2087F30800F300503E9C0E01274
:1002E200003E300503D0E0F9D0E0B51BCC30051755
:1002F2007F30B9100C12003E7F583004077F78809F
:1003020003B9080312003E3002057F2D02003E7F32
:10031200202008F87F2B2006F322920280CF286E3D
:10032200756C6C2900D2011200033001F8C2017809
:100332001B30D50108F60200A92D5043495812007E
:10034200032403B405004001E490033B9312002F01
:0D035200743A12002FD203751B0402018EB5
:1006D300EF4E6012EF60010EEDBB010B89828A833E
:1006E300F0A3DFFCDEFA2289F05007F709DFFCA94B
:0C06F300F022BBFEFCF309DFFCA9F022A2
:1006FF00BB010689828A83E0225002E722BBFE02F9
:09070F00E32289828A83E493222B
:10071800BB010CE58229F582E5833AF583E0225096
:1007280006E92582F8E622BBFE06E92582F8E222E0
:0D073800E58229F582E5833AF583E49322FA
:10074500BB010689828A83F0225002F722BBFE0193
:02075500F3228D
:10075700FAE6FB0808E6F925F0F618E6CA3AF622A3
:10076700D083D082F8E4937012740193700DA3A321
:1007770093F8740193F5828883E473740293686035
:06078700EFA3A3A380DF35
:100B0500EFB40A07740D120B10740A309811A899E6
:100B1500B8130CC2983098FDA899C298B811F63050
:070B250099FDC299F5992228
:00000001FF
