:10073300434849505F49443A253032780A004558C6
:10074300414D2054696D650A00543120546573741A
:06075300202E2E2E0A00EC
:0C001E0004260000000004220000000086
:1005EA007F327E001200031207B61205727F327E36
:1005FA00001200037BFF7A077933AFA1750B008FD6
:10060A000C1200907BFF7A07794112009053921FD7
:10061A004393E0C295C296C2977BFF7A07794C1240
:10062A00009053C9DF7D017F011206D67DD07C0779
:0D063A007F01120697D28ED2ABD2AF80FEA8
:03001B0002064793
:10064700C0E0C0F0C083C082C0D0E8C0E0E9C0E02D
:10065700EAC0E0EBC0E0ECC0E0EDC0E0EEC0E0EFE8
:10066700C0E0B2957DD07C077F01120697D0E0FFEE
:10067700D0E0FED0E0FDD0E0FCD0E0FBD0E0FAD047
:10068700E0F9D0E0F8D0D0D082D083D0F0D0E032FB
:03002B0002001AB6
:01001A0032B3
:1006D600EFFB7A007009E58954F04DF5898024EB2B
:1006E60064014A700EEDC454F0FFE589540F4FF5CE
:1006F600898010EF64027008C2CDC2CCC2C88003E4
:060706007F00227F0122AA
:10069700C3E49DFDE49CFCEF700DCFEDCFEFF58A31
:1006A700CFECCFEFF58C22EF6401700DCFEDCFEFDC
:1006B700F58BCFECCFEFF58D22EF64027010CFED05
:0E06C700CFEFF5CC8FCACFECCFEFF5CD8FCBB8
:0106D5002202
:1007A400C2CDC2CCC2C9D2CBD2C8EF25E025E0422B
:0207B400C92258
:10075900C2CDC2CCD2C8D2CBC2C9EF25E025E0FFB9
:0A076900E5C954FD4F4401F5C92213
:1007B60075A15575A1AAE5B954F84406F5B9E4F54D
:0207C600A1226E
:10077300EF4E601505A105A105A105A105A105A1E0
:0A07830005A1EF1F70EA1E80E722B7
:10000300AD07AC06ED4C600E7FE87E03120773ED7F
:070013001D70F11C80EE22BC
:0A07C8004396C04397C053AAE722EE
:10057200C29FD29EC29DC2CDC2CC438780E4750B7E
:1005820082F50AF509F5087B0AFAF9F8AF0BAE0A0B
:10059200AD09AC081203C6AF038F0CAF0BAE0AADA8
:1005A20009AC08E47B0AFAF9F81203C68F0B8E0A2B
:1005B2008D098C08C3E50C9405748094804011EF7A
:1005C2002401F50BE43EF50AE43DF509E43CF508A7
:1005D200E589540F4420F58943C9A0E50BF404F5DD
:0705E2008DD28ED299D29C4C
:0105E90022EF
:0A07D20075A15575A1AA43B11022CC
:10078D0075A15575A1AAEF600543B101800353B161
:07079D00FEE4F5A1F5FF22C7
:0307DC008FFF226A
:030000000204E611
:0C04E600787FE4F6D8FD75812902052D11
:10038A0075F008758200EF2FFFEE33FECD33CDCC2A
:10039A0033CCC58233C5829BED9AEC99E5829840AD
:1003AA000CF582EE9BFEED9AFDEC99FC0FD5F0D68A
:1003BA00E4CEFBE4CDFAE4CCF9A88222B800C1B9B4
:1003CA000059BA002DEC8BF084CFCECDFCE5F0CBF2
:1003DA00F97818EF2FFFEE33FEED33FDEC33FCEB2B
:1003EA0033FB10D703994004EB99FB0FD8E5E4F9E6
:1003FA00FA227818EF2FFFEE33FEED33FDEC33FCD3
:10040A00C933C910D7059BE99A4007EC9BFCE99AC6
:10041A00F90FD8E0E4C9FAE4CCFB2275F010EF2F0B
:10042A00FFEE33FEED33FDCC33CCC833C810D7070B
:10043A009BEC9AE899400AED9BFDEC9AFCE899F846
:0E044A000FD5F0DAE4CDFBE4CCFAE4C8F922D9
:10002E00E517240BF8E60517227808300702780B3F
:10003E00E475F0011204B00204582000EB7F2ED2BA
:10004E00008018EF540F2490D43440D4FF30040BAA
:10005E00EF24BFB41A0050032461FFE518600215A7
:10006E0018051BE51B7002051A30070D7808E4759C
:10007E00F0011204B0EF02049E02070C7403D207C3
:10008E008003E4C207F5178B088A09890AE4F5187C
:10009E00F51AF51BE51860077F2012006980F575CB
:1000AE0019FFC201C200C202C203C205C206C208C3
:1000BE00120037FF700D3007057F0012007AAF1B5C
:1000CE00AE1A22B4255FC2D5C204120037FF24D067
:1000DE00B40A00501A75F00A781830D50508B6FF24
:1000EE000106C6A426F620D5047002D20380D924B8
:1000FE00CFB41A00EF5004C2E5D20402027AD20144
:10010E0080C6D20080C0D20280BCD2D580BAD205C1
:10011E0080B47F201200692002077401B5180040D8
:10012E00F112002EFF1200690200A2D208D2068040
:10013E009512002EFB12002EFA12002EF94A4B7069
:10014E0006794B7A037BFF20022EE518602A7E008B
:10015E008E8275830012047160060EEE651970F0C2
:10016E00C2D5EBC0E0EAC0E0E9C0E0EE1202C1D0B9
:10017E00E0F9D0E0FAD0E0FB120458FF60AAEBC021
:10018E00E0EAC0E0E9C0E0120069D0E02401F9D055
:10019E00E03400FAD0E0FBE5190460DCD519D98013
:1001AE00877BFF7A0279BDD202809C79108002791A
:1001BE0008C206C2088008D2D5790A8004790AC21C
:1001CE00D5E519047002F519E4FAFDFEFF12002EB2
:1001DE00FC7B0820011312002EFD7B1030000A124A
:1001EE00002EFE12002EFF7B20EC3382D592D550CE
:1001FE0013C3E43000069FFFE49EFEE42001039D3E
:10020E00FDE49CFCE4CBF8C201EC700CCFCECDCC5F
:10021E00E824F8F870F38017C3EF33FFEE33FEEDEA
:10022E0033FDEC33FCEB33FB994002FB0FD8E9EBCB
:10023E00300105F8D0E0C448B201C0E00AEC4D4EE2
:10024E004F78207B0070C2EAB5190040BCC0E012A6
:10025E0002C3D0F0D0E0200104C4C0E0C4B201C09B
:10026E00F0120052D0F0D5F0EB0200A21204C00141
:10027E003F5301B95801104C010C4201BD4F01C54D
:0F028E004401C54901254301CB5501AF4601AFDE
:10029D004501AF47036B5001142D01182E013B2B67
:1002AD00011C2301392003542A00D44800000133D6
:1002BD003F3F3F00790AA2D5200314300509B9103C
:1002CD00020404B9080104A2D5200602500104203D
:1002DD0002689202B518005034C0E07F2030031937
:1002ED007F30A20272067205500F12031AC202C2AB
:1002FD0006C205C2087F30800F300503E9C0E01249
:10030D000069300503D0E0F9D0E0B518CC30051701
:10031D007F30B9100C1200697F583004077F788048
:10032D0003B908031200693002057F2D0200697FB1
:10033D00202008F87F2B2006F322920280CF286E12
:10034D00756C6C2900D20112002E3001F8C20178B3
:10035D001830D50108F60200D42D5043495812002B
:10036D002E2403B405004001E49003669312005A55
:0D037D00743A12005AD2037518040201B937
:1004F2000205EAE493A3F8E493A34003F68001F231
:1005020008DFF48029E493A3F85407240CC8C3330A
:10051200C4540F4420C8834004F456800146F6DFD9
:10052200E4800B010204081020408090001EE47E4B
:10053200019360BCA3FF543F30E509541FFEE493CE
:10054200A360010ECF54C025E060A840B8E493A395
:10055200FAE493A3F8E493A3C8C582C8CAC583CAC0
:10056200F0A3C8C582C8CAC583CADFE9DEE780BE78
:01002A0000D5
:10045800BB010689828A83E0225002E722BBFE02A2
:09046800E32289828A83E49322D5
:10047100BB010CE58229F582E5833AF583E0225040
:1004810006E92582F8E622BBFE06E92582F8E2228A
:0D049100E58229F582E5833AF583E49322A4
:10049E00BB010689828A83F0225002F722BBFE013D
:0204AE00F32237
:1004B000FAE6FB0808E6F925F0F618E6CA3AF6224D
:1004C000D083D082F8E4937012740193700DA3A3CB
:1004D00093F8740193F5828883E4737402936860DF
:0604E000EFA3A3A380DFDF
:10070C00EFB40A07740D120717740A309811A899E0
:10071C00B8130CC2983098FDA899C298B811F6304D
:07072C0099FDC299F5992225
:00000001FF
