:10066600414E415F4354524C3D25780A00494E5451
:1006760020434D502120434D50206368616E6765CD
:03068600730A00F4
:10002A0075F30843F10843F12053F1EF5392E75374
:10003A0093E775F61043F18043F32043F104539D8F
:06004A007FD2EDD2AF22CF
:03005B0002060595
:10060500C0E0C0F0C083C082C0D0E8C0E0E9C0E06F
:10061500EAC0E0EBC0E0ECC0E0EDC0E0EEC0E0EF2A
:10062500C0E07BFF7A067966AFF190002BE4F0A37A
:10063500EFF01200C97BFF7A0679731200C9D0E08A
:10064500FFD0E0FED0E0FDD0E0FCD0E0FBD0E0FA4A
:10065500D0E0F9D0E0F8D0D0D082D083D0F0D0E08F
:010665003262
:1006EC00434D502064656D6F207374617274202EBD
:0406FC002E2E0A0094
:100689001207007F147E001206BE12056C7BFF7AEA
:0B0699000679EC1200C912002A80FE56
:1007000075A15575A1AAE5B954F84406F5B9E4F503
:02071000A12224
:1006A400EF4E601505A105A105A105A105A105A1B0
:0A06B40005A1EF1F70EA1E80E72287
:1006BE00AD07AC06ED4C600E7FE87E031206A4ED8E
:0706CE001D70F11C80EE22FB
:07071E0043960343970322F9
:10056C00C29FD29EC29DC2CDC2CC43878090002830
:10057C0012049D00000082E47B0AFAF9F89000282E
:10058C00E0FCA3E0FDA3E0FEA3E0FF1203FF90005C
:10059C002CEBF0900028E0FCA3E0FDA3E0FEA3E030
:1005AC00FFE47B0AFAF9F81203FF90002812049179
:1005BC0090002CE0C3940574809480401F90002818
:1005CC00E0FCA3E0FDA3E0FEA3E02401FFE43EFE7B
:1005DC00E43DFDE43CFC900028120491E589540FA5
:1005EC004420F58943C9A0900028A3A3A3E0F404F8
:0805FC00F58DD28ED299D29C3C
:0106040022D3
:0A00500075A15575A1AA43B1102255
:1006D50075A15575A1AAEF600543B101800353B11A
:0706E500FEE4F5A1F5FF2280
:030725008FFF2221
:03000000020712E2
:0C071200787FE4F6D8FD7581220206898C
:1003C30075F008758200EF2FFFEE33FECD33CDCCF1
:1003D30033CCC58233C5829BED9AEC99E582984074
:1003E3000CF582EE9BFEED9AFDEC99FC0FD5F0D651
:1003F300E4CEFBE4CDFAE4CCF9A88222B800C1B97B
:100403000059BA002DEC8BF084CFCECDFCE5F0CBB8
:10041300F97818EF2FFFEE33FEED33FDEC33FCEBF1
:1004230033FB10D703994004EB99FB0FD8E5E4F9AC
:10043300FA227818EF2FFFEE33FEED33FDEC33FC99
:10044300C933C910D7059BE99A4007EC9BFCE99A8D
:10045300F90FD8E0E4C9FAE4CCFB2275F010EF2FD2
:10046300FFEE33FEED33FDCC33CCC833C810D707D2
:100473009BEC9AE899400AED9BFDEC9AFCE899F80D
:0E0483000FD5F0DAE4CDFBE4CCFAE4C8F922A0
:0C049100ECF0A3EDF0A3EEF0A3EFF022DE
:10049D00A8828583F0D083D0821204B41204B412E2
:1004AD0004B41204B4E473E493A3C583C5F0C58307
:1004BD00C8C582C8F0A3C583C5F0C583C8C582C8A9
:0104CD00220C
:10005E00E50D242BF582E43400F583E0050D2290A6
:10006E00002830100390002BE475F00112052602D3
:10007E0004CE2009E97F2ED2098018EF540F249068
:10008E00D43440D4FF300D0BEF24BFB41A0050030C
:10009E002461FFE50E6002150E0511E511700205D3
:1000AE001030100E900028E475F001120526EF02B4
:1000BE0005140200037403D2108003E4C210F50D80
:1000CE0090002812053DE4F50EF510F511E50E60D1
:1000DE00077F201200A180F5750FFFC20AC209C268
:1000EE000BC20CC20EC20FC21112006DFF700D308A
:1000FE0010057F001200B2AF11AE1022B4255FC200
:10010E00D5C20D12006DFF24D0B40A00501A75F03E
:10011E000A780E30D50508B6FF0106C6A426F620CD
:10012E00D5047002D20C80D924CFB41A00EF50043B
:10013E00C2E5D20D0202B3D20A80C6D20980C0D265
:10014E000B80BCD2D580BAD20E80B47F201200A113
:10015E00200B077401B50E0040F112005EFF120075
:10016E00A10200DBD211D20F809512005EFB1200AD
:10017E005EFA12005EF94A4B700679847A037BFFB1
:10018E00200B2EE50E602A7E008E827583001204EF
:10019E00E760060EEE650F70F0C2D5EBC0E0EAC068
:1001AE00E0E9C0E0EE1202FAD0E0F9D0E0FAD0E0D9
:1001BE00FB1204CEFF60AAEBC0E0EAC0E0E9C0E0AB
:1001CE001200A1D0E02401F9D0E03400FAD0E0FB17
:1001DE00E50F0460DCD50FD980877BFF7A0279F6B4
:1001EE00D20B809C791080027908C20FC211800850
:1001FE00D2D5790A8004790AC2D5E50F047002F5CA
:10020E000FE4FAFDFEFF12005EFC7B08200A1312BB
:10021E00005EFD7B1030090A12005EFE12005EFFCA
:10022E007B20EC3382D592D55013C3E43009069F60
:10023E00FFE49EFEE4200A039DFDE49CFCE4CBF863
:10024E00C20AEC700CCFCECDCCE824F8F870F38057
:10025E0017C3EF33FFEE33FEED33FDEC33FCEB3320
:10026E00FB994002FB0FD8E9EB300A05F8D0E0C449
:10027E0048B20AC0E00AEC4D4E4F78207B0070C2A7
:10028E00EAB50F0040BCC0E01202FCD0F0D0E02076
:10029E000A04C4C0E0C4B20AC0F012008AD0F0D57D
:1002AE00F0EB0200DB12054601785301F2580149CA
:1002BE004C01454201F64F01FE4401FE49015E43E9
:0802CE0002045501E84601E8B5
:1002D6004501E84703A450014D2D01512E01742B11
:1002E600015523017220038D2A010D480000016C7F
:1002F6003F3F3F00790AA2D5200C14300E09B910F1
:10030600020404B9080104A2D5200F0250010420FA
:100316000B68920BB50E005034C0E07F20300C19EC
:100326007F30A20B720F720E500F120353C20BC214
:100336000FC20EC2117F30800F300E03E9C0E012EB
:1003460000A1300E03D0E0F9D0E0B50ECC300E1788
:100356007F30B9100C1200A17F58300D077F7880CE
:1003660003B908031200A1300B057F2D0200A17FFF
:10037600202011F87F2B200FF322920B80CF286EBE
:10038600756C6C2900D20A12005E300AF8C20A782F
:100396000E30D50108F602010D2D504349581200C2
:1003A6005E2403B405004001E490039F931200927B
:0D03B600743A120092D20C750E040201F28E
:1004CE00BB010689828A83E0225002E722BBFE022C
:0904DE00E32289828A83E493225F
:1004E700BB010CE58229F582E5833AF583E02250CA
:1004F70006E92582F8E622BBFE06E92582F8E22214
:0D050700E58229F582E5833AF583E493222D
:10051400BB010689828A83F0225002F722BBFE01C6
:02052400F322C0
:10052600F8E0FBA3A3E0F925F0F0E582158270025E
:070536001583E0FA38F02202
:09053D00EBF0A3EAF0A3E9F022BF
:10054600D083D082F8E4937012740193700DA3A344
:1005560093F8740193F5828883E473740293686058
:06056600EFA3A3A380DF58
:10000300EFB40A07740D12000E740A309811A89900
:10001300B8130CC2983098FDA899C298B811F6305D
:0700230099FDC299F5992235
:00000001FF
