:10152D00537461727420404368697049443D25309D
:10153D0032580A00576169742044657669636520E5
:10154D00496E0A00456E756D416C6C526F6F744437
:10155D00657620657272203D20253032580A004D87
:10156D006F75736520646174613A2000782530329F
:10157D005820000A004D6F757365206572726F7289
:10158D0020253032780A004D6F757365206E6F20FF
:10159D00696E7465727275707420656E64706F69B2
:0415AD006E740A004E
:10103600121A4A1215B17BFF7A15792DAFA1753DAB
:10104600008F3E1205B0121959C2097BFF7A157935
:10105600411205B0E4F52330D80EC2D81216EF8F30
:1010660023EF64157002D209200906E52364157082
:101076001FC2097FC87E001219DD1219398F23EFAE
:10108600600E7BFF7A157951753D00F53E1205B06D
:101096007F647E001219DD7F33121629AD07AC0678
:1010A600EDF47002ECF460AC8C228D2412169CE5F3
:1010B60024601175F00CA4247DF582E43400F583D8
:1010C600E0FF80059000F5E0FF8F25E525540F70C1
:1010D60003021167E525547F4490FFE52530E704B8
:1010E6007DC080027D00E4FBFA1213BC8F23EF70F3
:1010F6005C632580E524600F75F00CA4247DF582E1
:10110600E43400F58380039000F5E525F085DB24C3
:10111600E52460567BFF7A15796C1205B0E4F5225A
:10112600E522C39524501E7BFF7A15797974002534
:1011360022F582E43400F583E0753D00F53E1205A4
:10114600B0052280DB7BFF7A157980801AE523645F
:101156002A60177BFF7A157982753D0085233E80CC
:10116600067BFF7A1579941205B0E4FF121A5C0229
:02117600105A0D
:100B60005553422064657620696E0A005553422031
:100B7000646576206F75740A005345545F504F5278
:100B8000542020253032582020253032582000258E
:100B900030327820000A0052657365742055534244
:100BA00020506F72740A0044697361626C6520752D
:100BB000736220706F727420626563617573652063
:100BC0006F6620646973636F6E6E6563740A0047B5
:100BD000657444657644657363723A20002530324B
:100BE00058200047657443666744657363723A2012
:100BF00000782530325820005553422D4469736BDC
:100C00002052656164790A005553422D5072696E15
:100C100074204F4B0A005553422D5072696E742058
:100C200052656164790A00416E616C797A65486940
:100C300064496E74456E647020253032780A004332
:100C400074726C536574557362436F6E6669672086
:100C5000253032780A004765744849445265706F00
:100C600072743A20005553425F4445565F434C41ED
:100C700053535F4849442052656164790A005553D3
:100C8000422D4B6579626F617264205265616479AF
:100C90000A005553422D4D6F75736520526561648E
:100CA000790A0047657448756244657363723A0057
:100CB0004578742D48554220506F72745F25316419
:100CC0002320706F776572206F6E206572726F726D
:100CD0000A0064765F636C7320253032780A0069FD
:100CE000665F636C7320253032780A0069665F7333
:100CF0007562636C7320253032780A0025303278B3
:100D000020253032780A00496E6974526F6F74443E
:100D1000657620457272203D20253032580A004504
:100D20006E756D5553424465760A008006000100D9
:100D3000001200800600020000040000050200000E
:100D40000000000009000000000000010B0000008E
:100D50000000000201000000000000A006002900C1
:100D6000000900210A0000000000008106002200A6
:100D700000FF00A10000000000F103C033000000EC
:100D8000000200403500000000000000041023278E
:100D90003543574348005743485541525444656DC5
:100DA0006F00574348204163636573736F72792006
:100DB0005465737400312E3000687474703A2F2FAC
:100DC0007763682E636E00574348416363657373AE
:100DD0006F7279310040340000000004004034009C
:100DE0000001000C004034000002001300403400F9
:100DF00000030004004034000004000E00403400F2
:050E00000005000E00DA
:081A9600E49000EDF0A3F02242
:1016EF00E4F539E5DA30E0239000EDE06006E5D16E
:1016FF0054017037121A969000ED7401F07BFF7A47
:10170F000B79601205B075391580209000EDE0C39C
:10171F009401748094804013121A967BFF7A0B7990
:0D172F006C1205B0E5397003753916AF393D
:01173C00228A
:0C1A6A00EF547FFFE5E354804FF5E322CA
:0E1A5C00EF600753E2BF53D27F2243E24022E5
:10173D009000807408F07E007F0D7D007B017A00A3
:10174D0079ED120AFEE4FF121A6A53D1FEE4FF127C
:10175D001A5CE5D154FB4402F5D17F147E001219B9
:10176D00DD53D1FDE5DA540160FA7F017E001219D7
:04177D00DDC2D822CF
:101781009000EDE0C394017480948050037401F0E3
:10179100E5DA30E024E5D154017015E5DA30E104F1
:1017A1007F0080027F019000EFEFF0700343D104CE
:0C17B10075D24043D1017F00227F162238
:10169C00AE07EE603F75F00CA42476F582E43400BE
:1016AC00F583E0FF121A6AEE75F00CA42477F5822C
:1016BC00E43400F583E0FF121A5CEE75F00CA42400
:1016CC0077F582E43400F583E0701743D2807F64B1
:1016DC00FE0219939000EEE0FF121A6AA3E0FF12CB
:0316EC001A5C2263
:1019AD007F907E0120D909EF1F70011EEF4E70F45C
:0819BD0030D9037F00227FFEF8
:0119C50022FF
:0613BC008F368A378B38E2
:1013C200AF058FD68FD4E4F5DD8536D5C2D97F90AF
:1013D2007E0120D909EF1F70011EEF4E70F4E4F573
:1013E200D520D9037FFE2230D828C2D81216EFEFBB
:1013F20064157002D2099000EDE0FD7C0070037F5D
:101402001622ED64014C70037F15227FC87E001204
:10141200199330D96530DE037F0022E5D9540FFFDE
:10142200FD7C00640E7002800CED640A4C7020E5B5
:101432003845377003EF803BC3E53894FFE53794B6
:10144200FF5008E53815387002153715DD802EE596
:1014520036C4540F24F7600D24FC6004240C70176A
:10146200EF601A800EEFFD64037005ED640B600DF2
:10147200EF600A4420FF227FFE2275D8FF7F0F7E95
:101482000012199305DDAFDDC3EF940374809480DD
:0714920050030213CB7F2081
:011499002230
:0F0E05001218D6900044E52EF07E007F8D7D2FD1
:100E1400E4F530F531AA06A9077B019000FA04F045
:100E2400A3EAF0A3E9F0AF05A9071B8B33753400DF
:100E340089357FC87E00121993E534453545336002
:100E44000AAB33AA34A935E4120A0875D7087B1013
:100E54007A27E4FD7FD01213BC8F32EF6001227534
:100E6400D6D075D4D075D701900047E0FE900046E7
:100E7400E0FDEEF530EDF531E5314530700302105B
:100E8400059000FAE0FBA3E0FAA3E0F9EA494B700D
:100E940003021005900040E020E703020F39E5311A
:100EA40045307003020F337FC87E001219937B1004
:100EB4007A27ADD47F901213BC8F32EF600122AF3A
:100EC400DBC3EF9531E495305004AFDB8002AF31E2
:100ED400EFFDC3E5319DF531E5309400F530E5349F
:100EE40045354533600AAB33AA34A935EF1209E618
:100EF400E4FEEE6F602874002EF582E43400F5837E
:100F0400E0FD9000FAE0FBA3E0FAA3E0F9ED120A99
:100F1400089000FBE475F001120A1A0E80D4AFDBCE
:100F2400EF600C900080E01455DB7003020EA2E425
:100F3400F5D7021005E531453070030210057FC86E
:100F44007E00121993900080E0FFFDC3E5319DE51A
:100F540030940040028002AF318FD79000FAE0FB5A
:100F6400A3E0FAA3E0F99000011209B96409702A18
:100F7400630B01E50B120A089000FAE0FBA3E0FA08
:100F8400A3E0F91209A0753D00F53E753F00850BFD
:100F9400407BFF7A0B79791205B0E4FFEF65D760E7
:100FA400289000FAE0FBA3E0FAA3E0F91209A0FEFE
:100FB40074402FF582E43400F583EEF09000FBE4F6
:100FC40075F001120A1A0F80D37B107A27ADD67FF1
:100FD400101213BC8F32EF600122AFD7C3E5319FEB
:100FE400F531E5309400F530E5344535453370038B
:100FF400020F39AB33AA34A935E5D71209E6020F3B
:10100400397FC87E00121993E5D760047F9080026F
:101014007F107B107A277DC01213BC8F32EF6001E2
:1010240022AFD7EF7002FF22AFDBEF7002FF227F07
:0110340017A4
:011035002298
:1018D600E4FDED6408601B8F828E83E493FC744004
:1018E6002DF582E43400F583ECF00FBF00010E0DF8
:0218F60080E090
:0118F80022CD
:10182C009000807408F07E0D7F2B1218D67E007FFE
:10183C008D7D2F120E14EF600122900094E0900029
:10184C0080F0900D31E493FFE52FC39F50037F1779
:03185C00227F00E8
:01185F002266
:1017F5007E0D7F331218D67E007F8D7D2E120E143E
:10180500EF60012290008FE0F52E7E0D7F331218D8
:10181500D6900046E52EF07E007F8D7D2E120E14AB
:06182500EF6001227F00CC
:01182B00229A
:021860008F2EC9
:101862007E0D7F3B1218D6900042E52EF0E4FDFF7C
:10187200FE120E14EF600122AF2E121A6A7F0A7E48
:06188200001219DD7F00D9
:01188800223D
:101A0B00AB077E0D7F431218D6900042EBF0E4FD3E
:051A1B00FFFE020E14A5
:101A2000AB077E0D7F531218D6900044EBF0E4FD17
:051A3000FFFE020E1490
:101A3500AB077E0D7F4B1218D6900042EBF0E4FD0C
:051A4500FFFE020E147B
:021978008F2EB0
:10197A007E0D7F63120E05EF6001227E0D7F6B12D2
:08198A000E05EF6001227F0051
:011992002232
:1018B0007E0D7F5B1218D67E007F8D7D2E120E145A
:1018C000EF600122900D61E493FFE52EC39F50036A
:0518D0007F17227F00DC
:0118D50022F0
:1017BD0090004074A3F0A3E4F0A3F0A3F0A3EFF026
:1017CD00A3E4F0A37404F0A3E4F07E007F8D7D0A02
:1017DD00120E14EF600122C3E50A94047480948004
:0717ED0050037F17227F006B
:0117F40022D2
:1018F9009000407423F0A37403F0A3EDF0A3E4F087
:10190900A3EFF0A3E4F0A3F0A3F0FDFFFE020E1491
:101919009000407423F0A37401F0A3EDF0A3E4F068
:10192900A3EFF0A3E4F0A3F0A3F0FDFFFE020E1471
:1019C6007E0D7F731218D67E007F8D7D2E120E142B
:0619D600EF6001227F001A
:0119DC0022E8
:0612A3008E2E8F2F8D300E
:1012A900E4F532E53060199000047D0075F00CA476
:1012B900247DF9740035F0FA7B01AE83AF82800C8E
:1012C9007E007F047D007B017A0079F5120AFEE435
:1012D900F531852F82852E83A3A3E0FFE531C39FD6
:1012E90040030213B0E52F2531F582E4352EF5834D
:1012F900A3E064056003021390E52F2531F582E42C
:10130900352EF583A3A3A3E0540364037079E52F75
:101319002531F582E4352EF583A3A3E0FF30E76795
:10132900E530601EEF540FFFE53075F00CA4247D05
:10133900F582E43400F583E5822532F582E43583CC
:10134900801AE52F2531F582E4352EF583A3A3E034
:10135900540FFF74F52532F582E43400F583EFF07C
:101369007BFF7A0B798F74F52532F582E43400F529
:1013790083E0753D00F53E1205B00532C3E53294B0
:1013890004748094805020E52F2531F582E4352EB0
:10139900F583E0F533D39410748094805009E533D4
:1013A9002531F5310212DB7BFF7A0B79951205B0F5
:0213B900AF3251
:0113BB00220F
:061178008E2E8F2F8D303A
:10117E00E4F531753202E53060199000047D00759A
:10118E00F00CA4247DF9740035F0FA7B01AE83AF28
:10119E0082800C7E007F047D007B017A0079F5123F
:1011AE000AFEE4FF852F82852E83A3A3E0FEEFC304
:1011BE009E40030212A0E52F2FF582E4352EF58313
:1011CE00A3E064056003021283E52F2FF582E43558
:1011DE002EF583A3A3A3E0540364026003021283DB
:1011EE00E5306046E52F2FF582E4352EF583A3A377
:1011FE00E030E709540FFEAD3105318014E52F2F95
:10120E00F582E4352EF583A3A3E0540FFEAD32052F
:10121E0032E53075F00CA4247DF582E43400F583BC
:10122E00E5822DF582E435838035E52F2FF582E4B6
:10123E00352EF583A3A3E030E709540FFEAD31053B
:10124E00318014E52F2FF582E4352EF583A3A3E02C
:10125E00540FFEAD32053274F52DF582E43400F5EF
:10126E0083EEF0E53164027003753101E5326404FA
:10127E007003753203E52F2FF582E4352EF583E0EA
:10128E00F533D39410748094805007E5332FFF020A
:04129E0011B27F000A
:0112A2002229
:10149A007E0D7F7B1218D67E007F8D7D08120E147A
:1014AA00EF60012290008DE0C39402748094805012
:1014BA00037F4122E4F509E509C394067480948008
:1014CA00504AE509900D8B93FBE50975F008A424B1
:1014DA00D5F582E4340DAF82FE1218D6900047E0AB
:1014EA00FE900046E0FDEDFF74922BF9E4340DFA0C
:1014FA007BFF788D7C007D0112097A7E007F8D7DCD
:10150A0008120E14EF600122050980AB7E0D7F835D
:10151A001218D67E007F8D7D08120E14EF6001220C
:02152A007F0040
:01152C00229C
:10000300E4F52DF5267BFF7A0B79971205B0E4F51D
:1000130027E527C3952650197F647E001219DDD387
:10002300E526940A748094804003AF282205278034
:10003300E012173DE4F527F528C3E527946474809F
:100043009480502A7F017E001219DD121781EF7010
:1000530019F5270528E5262414FFE433FED3E52804
:100063009FEE6480F87480985004052780CBE527C1
:10007300600F121A967BFF7A0B79A71205B07F16D1
:1000830022E4FF12169C7BFF7A0B79CF1205B01284
:10009300182C8F28EF600302052FF527900D31E40C
:1000A30093FFE527C39F501E7BFF7A0B79DD748D89
:1000B3002527F582E43400F583E0753D00F53E1213
:1000C30005B0052780D67BFF7A0B79951205B09092
:1000D3000096E0FE900095E07C002400FFEC3E904B
:1000E30000F1F0A3EFF0900098E0FE900097E02479
:1000F30000FFEC3E9000F3F0A3EFF0900091E0F5E9
:100103002A900D3DE493FF1218608F28EF600302DD
:10011300052F900D3D939000EEF07BFF7A0B79E372
:100123001205B01217F58F28EF600302052F900018
:1001330092E0F529900091E0F52CE4F52790008FEB
:10014300E0FFE527C39F501E7BFF7A0B79F1748D87
:100153002527F582E43400F583E0753D00F53E1272
:1001630005B0052780D77BFF7A0B79951205B090F0
:10017300009BE0F52BE52A7060E52B6408705A7E3E
:10018300007F8DFD121178E4F527E5276404601ED6
:100193007BFF7A0B798F74F52527F582E43400F51C
:1001A30083E0753D00F53E1205B0052780DC7BFF3B
:1001B3007A0B79951205B0AF29121A0B8F28EF60CD
:1001C3000302052F9000ED7403F09000F07408F023
:1001D3007BFF7A0B79F802029FE52A60030202A9EA
:1001E300E52B640760030202A990009CE0640160B0
:1001F300030202A97BFF7A0C79081205B09000A0D4
:10020300E0FF7E006405700AA3E060069000F5F04D
:10021300801EEF64054E70189000A1E0FF7C006023
:10022300047D0180027D00ED4C70059000F6EFF037
:100233009000A7E0FF7E00640570109000A1E060CD
:100243000A9000A8E09000F5F08020EF64054E705E
:100253001A9000A1E07E0060047F0180027F00EF1E
:100263004E70089000A8E09000F6F0AF29121A0B28
:100273008F28EF600302052FAF29121A358F28123A
:1002830019C68F28EF600302052F9000ED7403F069
:100293009000F07407F07BFF7A0C79161205B07F9B
:1002A30001121A5C1F22E52A60030203C5E52B64D1
:1002B3000360030203C590009CE0D394017480940F
:1002C3008040030203C57E007F8DE4FD1212A38FDD
:1002D300287BFF7A0C7927753D008F3E1205B0907D
:1002E300009DE0F52B7BFF7A0C793F753D00852956
:1002F3003E1205B0AF29121A0B8F28EF60030205D7
:100303002F7BFF7A0C79561205B0E4F52AE52AC350
:10031300952C5042AF2A1219788F28EF7034F527A5
:10032300C3E527944074809480501E7BFF7A0B7939
:10033300F1748D2527F582E43400F583E0753D00E3
:10034300F53E1205B0052780D77BFF7A0B7995120E
:1003530005B0052A80B79000ED7403F0E52B640126
:1003630070289000F07423F0D3E52C9401748094EA
:1003730080400F7BFF7A0C79651205B09000F07412
:1003830003F07BFF7A0C797E802CE52B6402702CC2
:100393009000F07433F0D3E52C9401748094804082
:1003A3000F7BFF7A0C79651205B09000F07403F0AF
:1003B3007BFF7A0C79921205B00204997528FB022F
:1003C300052FE52A6409600302049E7E007F8DFDEC
:1003D3001212A38F287BFF7A0C7927753D008F3E7D
:1003E3001205B07BFF7A0C79A31205B01218B08FF7
:1003F30028EF600302052FF52790008DE0FFE52726
:10040300C39F501E7BFF7A0B79F1748D2527F582EC
:10041300E43400F583E0753D00F53E1205B0052791
:1004230080D77BFF7A0B79951205B090008FE0900F
:1004330000F9F0D394017480948040037401F0AF09
:1004430029121A0B8F28EF600302052F9000ED7419
:1004530003F09000F07409F07527019000F9E0FFB4
:10046300E527D39F5030E52775F00CA42475F5825A
:10047300E43400F583E4F07D08AF271218F98F28E0
:10048300EF600F7BFF7A0C79B0753D0085273E1234
:1004930005B0052780C5E4FF021A5C7BFF7A0C795F
:1004A300D2753D00852A3E1205B07BFF7A0C79DFB9
:1004B300753D00852B3E1205B07BFF7A0C79EC90DD
:1004C300009CE0753D00F53E1205B07E007F8DE493
:1004D300FD121178E4F527E5276404601E7BFF7A9B
:1004E3000B798F74F52527F582E43400F583E075E5
:1004F3003D00F53E1205B0052780DC7BFF7A0B79C2
:10050300951205B0AF29121A0B8F28EF701E7BFFCF
:100513007A0C79FC9000F1E0F53DA3E0F53EA3E011
:10052300F53FA3E0F5401205B07F00227BFF7A0D73
:100533007907753D0085283E1205B09000ED7402E1
:0B054300F07F01121A5C052602001177
:101939007BFF7A0D791F1205B09000EDE06401700C
:0F1949000C120003780CEFF66003E6FF227F001C
:01195800226C
:10162900E4F99000F0E06409704B9000EDE0C39498
:101639000374809480403E7D019000F9E0FEEDD373
:101649009E5032ED75F00CA42478F582E43400F54F
:1016590083E06F701DED75F00CA42475F582E434F8
:1016690000F583E0C39403748094804005E9FEED9E
:10167900FF220D80C49000F0E0B507129000EDE064
:10168900C39403748094804005E97F00FE227EFFA5
:021699007FFFD1
:01169B00222C
:10195900C2EAE4F5E375EB4875E40075E640F5D4B1
:0F196900F5D675E28875D8FF121A9675E103223C
:101A4A0075A15575A1AAE5B954F84406F5B9E4F5A6
:021A5A00A122C7
:10199300EF4E601505A105A105A105A105A105A1AE
:0A19A30005A1EF1F70EA1E80E72285
:1019DD00AD07AC06ED4C600E7FE87E03121993ED5A
:0719ED001D70F11C80EE22C9
:0A1A82004396C04397C053AAE72221
:1015B100C29FD29EC29DC2CDC2CC438780E4752911
:1015C10082F528F527F5267B0AFAF9F8AF29AE2826
:1015D100AD27AC26120A6CAF038F2AAF29AE28AD16
:1015E10027AC26E47B0AFAF9F8120A6C8F298E28B7
:1015F1008D278C26C3E52A9405748094804011EFD1
:101601002401F529E43EF528E43DF527E43CF526DF
:10161100E589540F4420F58943C9A0E529F404F56F
:071621008DD28ED299D29CFC
:01162800229F
:0A1A8C0075A15575A1AA43B11022FF
:1019F40075A15575A1AAEF600543B101800353B1E8
:071A0400FEE4F5A1F5FF224D
:031A9E008FFF2295
:03000000021A766B
:0C1A7600787FE4F6D8FD75814D02103633
:1008AA00E709F608DFFA8046E709F208DFFA803E30
:1008BA0088828C83E709F0A3DFFA8032E309F6081D
:1008CA00DFFA8078E309F208DFFA807088828C8385
:1008DA00E309F0A3DFFA806489828A83E0A3F60839
:1008EA00DFFA805889828A83E0A3F208DFFA804C13
:1008FA0080D280FA80C680D4806980F280338010EA
:10090A0080A680EA809A80A880DA80E280CA803352
:10091A0089828A83ECFAE493A3C8C582C8CCC583CA
:10092A00CCF0A3C8C582C8CCC583CCDFE9DEE7809A
:10093A000D89828A83E493A3F608DFF9ECFAA9F019
:10094A00EDFB2289828A83ECFAE0A3C8C582C8CC6F
:10095A00C583CCF0A3C8C582C8CCC583CCDFEADE88
:10096A00E880DB89828A83E493A3F208DFF980CCEA
:10097A0088F0EF60010E4E60C388F0ED2402B404E3
:10098A000050B9F582EB2402B4040050AF2323458A
:06099A0082239008FA73AD
:1009A000BB010689828A83E0225002E722BBFE0255
:0909B000E32289828A83E4932288
:1009B900BB010CE58229F582E5833AF583E02250F3
:1009C90006E92582F8E622BBFE06E92582F8E2223D
:0D09D900E58229F582E5833AF583E4932257
:1009E600BB010989828A83F8E028F022500327F7A1
:1009F60022BBFE05F8E328F3228A838982F8E49372
:020A06002822A4
:100A0800BB010689828A83F0225002F722BBFE01CD
:020A1800F322C7
:100A1A00C5F0F8A3E028F0C5F0F8E5821582700267
:060A2A001583E038F02204
:100A300075F008758200EF2FFFEE33FECD33CDCC7D
:100A400033CCC58233C5829BED9AEC99E582984000
:100A50000CF582EE9BFEED9AFDEC99FC0FD5F0D6DD
:100A6000E4CEFBE4CDFAE4CCF9A88222B800C1B907
:100A70000059BA002DEC8BF084CFCECDFCE5F0CB45
:100A8000F97818EF2FFFEE33FEED33FDEC33FCEB7E
:100A900033FB10D703994004EB99FB0FD8E5E4F939
:100AA000FA227818EF2FFFEE33FEED33FDEC33FC26
:100AB000C933C910D7059BE99A4007EC9BFCE99A1A
:100AC000F90FD8E0E4C9FAE4CCFB2275F010EF2F5F
:100AD000FFEE33FEED33FDCC33CCC833C810D7075F
:100AE0009BEC9AE899400AED9BFDEC9AFCE899F89A
:0E0AF0000FD5F0DAE4CDFBE4CCFAE4C8F9222D
:10054E00E549243DF8E6054922783A300702783D20
:10055E00E475F001120B2A0209A02000EB7F2ED2C7
:10056E00008018EF540F2490D43440D4FF30040B85
:10057E00EF24BFB41A0050032461FFE54A60021550
:10058E004A054DE54D7002054C30070D783AE4757D
:10059E00F001120B2AEF020A080218897403D2071F
:1005AE008003E4C207F5498B3A8A3B893CE4F54A5D
:1005BE00F54CF54DE54A60077F2012058980F575EB
:1005CE004BFFC201C200C202C203C205C206C2086C
:1005DE00120557FF700D3007057F0012059AAF4DBB
:1005EE00AE4C22B4255FC2D5C204120557FF24D0EB
:1005FE00B40A00501A75F00A784A30D50508B6FFCD
:10060E000106C6A426F620D5047002D20380D92492
:10061E00CFB41A00EF5004C2E5D20402079AD201F9
:10062E0080C6D20080C0D20280BCD2D580BAD2059C
:10063E0080B47F201205892002077401B54A00405C
:10064E00F112054EFF1205890205C2D208D20680AC
:10065E009512054EFB12054EFA12054EF94A4B70D5
:10066E0006796B7A087BFF20022EE54A602A7E000F
:10067E008E827583001209B960060EEE654B70F01E
:10068E00C2D5EBC0E0EAC0E0E9C0E0EE1207E1D06F
:10069E00E0F9D0E0FAD0E0FB1209A0FF60AAEBC0AF
:1006AE00E0EAC0E0E9C0E0120589D0E02401F9D00B
:1006BE00E03400FAD0E0FBE54B0460DCD54BD9808A
:1006CE00877BFF7A0779DDD202809C7910800279D0
:1006DE0008C206C2088008D2D5790A8004790AC2F7
:1006EE00D5E54B047002F54BE4FAFDFEFF12054E04
:1006FE00FC7B0820011312054EFD7B1030000A1200
:10070E00054EFE12054EFF7B20EC3382D592D5505E
:10071E0013C3E43000069FFFE49EFEE42001039D18
:10072E00FDE49CFCE4CBF8C201EC700CCFCECDCC3A
:10073E00E824F8F870F38017C3EF33FFEE33FEEDC5
:10074E0033FDEC33FCEB33FB994002FB0FD8E9EBA6
:10075E00300105F8D0E0C448B201C0E00AEC4D4EBD
:10076E004F78207B0070C2EAB54B0040BCC0E0124F
:10077E0007E3D0F0D0E0200104C4C0E0C4B201C051
:10078E00F0120572D0F0D5F0EB0205C2120B3A064C
:10079E005F5306D95806304C062C4206DD4F06E54F
:0F07AE004406E54906454306EB5506CF4606CF00
:1007BD004506CF47088B5006342D06382E065B2B89
:1007CD00063C2306592008742A05F44800000653F8
:1007DD003F3F3F00790AA2D5200314300509B91017
:1007ED00020404B9080104A2D52006025001042018
:1007FD0002689202B54A005034C0E07F20300319E0
:10080D007F30A20272067205500F12083AC202C260
:10081D0006C205C2087F30800F300503E9C0E01223
:10082D000589300503D0E0F9D0E0B54ACC30051785
:10083D007F30B9100C1205897F583004077F7880FE
:10084D0003B908031205893002057F2D0205897F42
:10085D00202008F87F2B2006F322920280CF286EED
:10086D00756C6C2900D20112054E3001F8C2017869
:10087D004A30D50108F60205F42D504349581205AA
:10088D004E2403B405004001E49008869312057AC6
:0D089D00743A12057AD203754A040206D996
:100AFE00EF4E6012EF60010EEDBB010B89828A830F
:100B0E00F0A3DFFCDEFA2289F05007F709DFFCA91B
:0C0B1E00F022BBFEFCF309DFFCA9F02272
:100B2A00FAE6FB0808E6F925F0F618E6CA3AF622CC
:100B3A00D083D082F8E4937012740193700DA3A34A
:100B4A0093F8740193F5828883E47374029368605E
:060B5A00EFA3A3A380DF5E
:10188900EFB40A07740D121894740A309811A899C4
:10189900B8130CC2983098FDA899C298B811F630BF
:0718A90099FDC299F5992297
:00000001FF
