:100A5D004C69676874206F6E204E756D204C6F6306
:100A6D006B204C4544210A004C69676874206F6601
:100A7D0066204E756D204C6F636B204C4544210AEA
:100A8D000053455420434F4E4649472E0A005761A7
:100A9D006B650A00456E61626C652052656D6F7401
:100AAD00652057616B6575702E0A00457272457031
:100ABD0030526571436F64653D253032580A0045EB
:100ACD007272456E6470496E740A00556E6B6E6F6E
:100ADD00776E496E740A002563004B4D2044657690
:100AED00696365207374617274202E2E2E0A0012B4
:100AFD0001100100000008861AE1E6000101020064
:100B0D0001040309040E037700630068002E0063DF
:100B1D00006E000C0343004800350034003300051F
:100B2D00010906A101050719E029E7150025017541
:100B3D0001950881029501750881019503750105DF
:100B4D000819012903910295057501910195067505
:100B5D000826FF000507190029918100C00501092C
:100B6D0002A1010901A1000509190129031500259B
:100B7D000175019503810275059501810105010935
:100B8D0030093109381581257F750895038106C017
:100B9D00C009023B00020100A0320904000001035C
:100BAD00010100092111010001223E000705810309
:100BBD0008000A09040100010301020009211001C6
:0C0BCD0000012234000705820304000A26
:090EAA00015E00015F00015B0024
:0E0E9C0053D1FB7F027E00120E5C43D1042274
:0A000300755E01FB7A0079537D0859
:10000D008D39AF397E00EBC0E0EAC0E0E9C0E0C851
:10001D00740AC8CC7400CCCD7401CDD0E0F9D0E019
:0E002D00FAD0E0FB1208AF8539D353D2FC2283
:0A0DE300755F01FB7A0079607D0462
:100DED008D39AF397E00EBC0E0EAC0E0E9C0E0C864
:100DFD007414C8CC7400CCCD7401CDD0E0F9D0E022
:0E0E0D00FAD0E0FB1208AF8539D553D4FC2291
:0300430002004672
:0D004600C0E0C0F0C083C082C0D075D008FB
:1000530020D903020440E5D954BF700302011124DF
:10006300E0604314602C24A1700302011124E060BA
:100073003514601E1460072480600302013D75D5AA
:100083000063D440755F00E5D454FC4402F5D40208
:10009300043C75D30063D240755E00E5D254FC4442
:1000A30002F5D202043CE54D24FB604F147056C3A5
:1000B300E54F9408E54E940040047F088002AF4F5B
:1000C3008F237E00C87400C8CC7400CCCD7401CDDE
:1000D300AB50AA51A9521208AFAF237E00C3E54F1C
:1000E3009FF54FE54E9EF54EEF2552F552EE3551F5
:1000F300F5518523DD63DC4002043CE5E354804590
:100103004FF5E3800375DD0075DC0202043C85DBFB
:1001130023E54D6409701D900000E060087BFF7AC1
:100123000A795D800C900000E070097BFF7A0A7900
:10013300751204E563DC8002043CE5D954B064B075
:10014300600302043375DCC0900007E0FE900006F4
:10015300E07C002400F54FEC3EF54E900001E0F505
:100163004D752300900000E054606018E54D1424A1
:10017300FD400302040924FB24FD4003020409801B
:10018300000203C1E54DB40B0040030203F79001E5
:1001930098F82828730203DB0202E80203F702033C
:1001A3003D0203F70202A90201B90203F70202B5F5
:1001B3000202CC0203C6900003E024FE601C14601C
:1001C3002724E1605A2421600302024F7550FF7512
:1001D300510A7552FC75231280757550FF75510BCA
:1001E30075529E75233B8067900002E0602324FED6
:1001F30060110470577550FF75510B7552127523BA
:100203000E804C7550FF75510B75522075230C8071
:100213003E7550FF75510B75520E75230480309057
:100223000004E0FF7E00700E7550FF75510B755290
:100233002C75233E8019EF64014E700E7550FF75C7
:10024300510B75526A752334800580007523FFAF07
:10025300237E00D3E54F9FE54E9E40048E4E8F4F85
:10026300C3E54F9408E54E940040047F088002AF35
:100273004F8F237E00C87400C8CC7400CCCD7401AA
:10028300CDAB50AA51A9521208AFAF237E00C3E5EC
:100293004F9FF54FE54E9EF54EEF2552F552EE3545
:1002A30051F551020409900002E0754E00F54F022A
:1002B3000409900000E55CF0C3E54F9401E54E941A
:1002C3000050030204090203D6900002E0F55CE546
:1002D3005C70030204097BFF7A0A798E1204E575C8
:1002E3006401020409900000E0541FFF7E006402D1
:1002F3007036900004E014602614601224816014A8
:10030300147022E5D454BC4402F5D402040953D436
:1003130073020409E5D254BC4402F5D20204095322
:10032300D2730204090203C1EF4E700BF55B7BFF2E
:100333007A0A799B0204060203C1900000E0541F6D
:100343007027900003E0FE900002E0FDED64014E93
:100353007015900BA59330E50C755B017BFF7A0A52
:1003630079A102040680578055900000E0541F6471
:1003730002704B900003E0FE900002E0FDED4E7032
:100383003B900005E0FE900004E0FDEDFFEE702AD7
:10039300EF24FE60112481601714701EE5D454BF4E
:1003A3004403F5D48060E5D4547F440CF5D48056DF
:1003B300E5D254BF4403F5D2804C800280007523FC
:1003C300FF8043900000E4F0C3E54F9401E54E94B1
:1003D300004033752301802E900000E4F0A3F0C3A6
:1003E300E54F9402E54E940040057523028017857E
:1003F3004F2380127523FF7BFF7A0A79B8753C007F
:10040300854D3D1204E5AF237E00BEFF0BBFFF0801
:10041300754DFF75DCCF8021D3E523940874809458
:100423008050058523DD800375DD0075DCC0800900
:100433007BFF7A0A79CC1204E5C2D9803230D8170F
:1004430075DC0275D20275D40275E300C2DAC2D933
:10045300756400C2D8801830DA09C2DAE5DA30E20E
:100463000E800C7BFF7A0A79D81204E575D8FF3029
:05047300D9030200594D
:0B047800D0D0D082D083D0F0D0E03292
:100D5F00C2EAE4F5E2F5D3F5D575EA4075EB04CFB9
:100D6F007400CF8FECCF740ACF8FEECF7414CF8F68
:100D7F00E4F5E3F5B443D10443E240E5B454F7445A
:100D8F0080F5B443E21843D10175D8FF75E107D25E
:020D9F00EA2246
:100C6500120EC88F387BFF7A0A79E485383C120466
:100C7500E5E55B6003020E9CE53824BF603C24F08B
:100C8500604B14601724067058756001E55F70FCB1
:100C9500120DE3E4F560E55F70FC8011756002E517
:100CA5005F70FC120DE3E4F560E55F70FC755F01B4
:100CB500FB7A0079607D04020DED755504E55E70E3
:100CC500FC120003E4F555E55E70FC80117555399D
:100CD500E55E70FC120003E4F555E55E70FC12005C
:010CE500030B
:010CE60022EB
:100DA100120E8A7F147E00120E5C120CE77BFF7A12
:100DB1000A79E71204E5120D5FD2AF7E007F087D4C
:100DC100007B007A0079531209A37E007F047D0025
:100DD1007B007A0079601209A3E56460FC120C655E
:020DE10080F799
:100E8A0075A15575A1AAE5B954F84406F5B9E4F572
:020E9A00A12293
:100E4200EF4E601505A105A105A105A105A105A10A
:0A0E520005A1EF1F70EA1E80E722E1
:100E5C00AD07AC06ED4C600E7FE87E03120E42ED42
:070E6C001D70F11C80EE2255
:0A0EB4004396C04397C053AAE722FB
:100CE700C29FD29EC29DC2CDC2CC438780E4753BD2
:100CF70082F53AF539F5387B0AFAF9F8AF3BAE3A9F
:100D0700AD39AC38120911AF038F3CAF3BAE3AADEA
:100D170039AC38E47B0AFAF9F81209118F3B8E3A9D
:100D27008D398C38C3E53C9405748094804011EF6D
:100D37002401F53BE43EF53AE43DF539E43CF5386A
:100D4700E589540F4420F58943C9A0E53BF404F530
:070D57008DD28ED299D29CCF
:010D5E002272
:0A0EBE0075A15575A1AA43B11022D9
:100E730075A15575A1AAEF600543B101800353B174
:070E8300FEE4F5A1F5FF22DA
:03003B008FFF2212
:03000000020BD917
:0C0BD900787FE4F6D8FD758164020C20E2
:1007DF00E709F608DFFA8046E709F208DFFA803EFC
:1007EF0088828C83E709F0A3DFFA8032E309F608E9
:1007FF00DFFA8078E309F208DFFA807088828C8351
:10080F00E309F0A3DFFA806489828A83E0A3F60804
:10081F00DFFA805889828A83E0A3F208DFFA804CDE
:10082F0080D280FA80C680D4806980F280338010B5
:10083F0080A680EA809A80A880DA80E280CA80331E
:10084F0089828A83ECFAE493A3C8C582C8CCC58396
:10085F00CCF0A3C8C582C8CCC583CCDFE9DEE78066
:10086F000D89828A83E493A3F608DFF9ECFAA9F0E5
:10087F00EDFB2289828A83ECFAE0A3C8C582C8CC3B
:10088F00C583CCF0A3C8C582C8CCC583CCDFEADE54
:10089F00E880DB89828A83E493A3F208DFF980CCB6
:1008AF0088F0EF60010E4E60C388F0ED2402B404AF
:1008BF000050B9F582EB2402B4040050AF23234556
:0608CF00822390082F7344
:1008D50075F008758200EF2FFFEE33FECD33CDCCDA
:1008E50033CCC58233C5829BED9AEC99E58298405D
:1008F5000CF582EE9BFEED9AFDEC99FC0FD5F0D63A
:10090500E4CEFBE4CDFAE4CCF9A88222B800C1B963
:100915000059BA002DEC8BF084CFCECDFCE5F0CBA1
:10092500F97818EF2FFFEE33FEED33FDEC33FCEBDA
:1009350033FB10D703994004EB99FB0FD8E5E4F995
:10094500FA227818EF2FFFEE33FEED33FDEC33FC82
:10095500C933C910D7059BE99A4007EC9BFCE99A76
:10096500F90FD8E0E4C9FAE4CCFB2275F010EF2FBB
:10097500FFEE33FEED33FDCC33CCC833C810D707BB
:100985009BEC9AE899400AED9BFDEC9AFCE899F8F6
:0E0995000FD5F0DAE4CDFBE4CCFAE4C8F92289
:10048300E548243CF8E60548227839301002783CE8
:10049300E475F001120A270209CF2009EB7F2ED25F
:1004A300098018EF540F2490D43440D4FF300D0B3F
:1004B300EF24BFB41A0050032461FFE5496002151D
:1004C30049054CE54C7002054B30100D7839E47545
:1004D300F001120A27EF020A15020E1B7403D21051
:1004E3008003E4C210F5488B398A3A893BE4F54925
:1004F300F54BF54CE54960077F201204BE80F57586
:100503004AFFC20AC209C20BC20CC20EC20FC211F9
:1005130012048CFF700D3010057F001204CFAF4C16
:10052300AE4B22B4255FC2D5C20D12048CFF24D07A
:10053300B40A00501A75F00A784930D50508B6FF99
:100543000106C6A426F620D5047002D20C80D92455
:10055300CFB41A00EF5004C2E5D20D0206CFD20A7F
:1005630080C6D20980C0D20B80BCD2D580BAD20E4D
:1005730080B47F201204BE200B077401B5490040EC
:10058300F1120483FF1204BE0204F7D211D20F80CA
:1005930095120483FB120483FA120483F94A4B7005
:1005A3000679A07A077BFF200B2EE549602A7E009F
:1005B3008E827583001209E860060EEE654A70F0BC
:1005C300C2D5EBC0E0EAC0E0E9C0E0EE120716D006
:1005D300E0F9D0E0FAD0E0FB1209CFFF60AAEBC04C
:1005E300E0EAC0E0E9C0E01204BED0E02401F9D0A3
:1005F300E03400FAD0E0FBE54A0460DCD54AD98058
:10060300877BFF7A077912D20B809C79108002795D
:1006130008C20FC2118008D2D5790A8004790AC2B0
:10062300D5E54A047002F54AE4FAFDFEFF1204839D
:10063300FC7B08200A13120483FD7B1030090A1285
:100643000483FE120483FF7B20EC3382D592D550C2
:1006530013C3E43009069FFFE49EFEE4200A039DD2
:10066300FDE49CFCE4CBF8C20AEC700CCFCECDCCFD
:10067300E824F8F870F38017C3EF33FFEE33FEED91
:1006830033FDEC33FCEB33FB994002FB0FD8E9EB72
:10069300300A05F8D0E0C448B20AC0E00AEC4D4E77
:1006A3004F78207B0070C2EAB54A0040BCC0E0121C
:1006B3000718D0F0D0E0200A04C4C0E0C4B20AC0D6
:1006C300F01204A7D0F0D5F0EB0204F7120A3705B5
:1006D3009453060E5805654C05614206124F061ADF
:0F06E30044061A49057A430620550604460604C4
:1006F2004506044707C05005692D056D2E05902B50
:10070200057123058E2007A92A05294800000588BE
:100712003F3F3F00790AA2D5200C14300E09B910D0
:10072200020404B9080104A2D5200F0250010420DA
:100732000B68920BB549005034C0E07F20300C1991
:100742007F30A20B720F720E500F12076FC20BC2D4
:100752000FC20EC2117F30800F300E03E9C0E012CB
:1007620004BE300E03D0E0F9D0E0B549CC300E170C
:100772007F30B9100C1204BE7F58300D077F78808D
:1007820003B908031204BE300B057F2D0204BE7F9D
:10079200202011F87F2B200FF322920B80CF286E9E
:1007A200756C6C2900D20A120483300AF8C20A78E6
:1007B2004930D50108F60205292D50434958120443
:1007C200832403B405004001E49007BB931204AFF5
:0D07D200743A1204AFD20C75490402060EF1
:0A0EC8003098FDAF99C2987E002219
:1009A300EF4E6012EF60010EEDBB010B89828A836B
:1009B300F0A3DFFCDEFA2289F05007F709DFFCA978
:0C09C300F022BBFEFCF309DFFCA9F022CF
:100BE500020DA1E493A3F8E493A34003F68001F278
:100BF50008DFF48029E493A3F85407240CC8C33311
:100C0500C4540F4420C8834004F456800146F6DFDF
:100C1500E4800B0102040810204080900EAAE47EB7
:100C2500019360BCA3FF543F30E509541FFEE493D4
:100C3500A360010ECF54C025E060A840B8E493A39B
:100C4500FAE493A3F8E493A3C8C582C8CAC583CAC6
:100C5500F0A3C8C582C8CAC583CADFE9DEE780BE7E
:010EB300003E
:1009CF00BB010689828A83E0225002E722BBFE0226
:0909DF00E32289828A83E4932259
:1009E800BB010CE58229F582E5833AF583E02250C4
:1009F80006E92582F8E622BBFE06E92582F8E2220E
:0D0A0800E58229F582E5833AF583E4932227
:100A1500BB010689828A83F0225002F722BBFE01C0
:020A2500F322BA
:100A2700FAE6FB0808E6F925F0F618E6CA3AF622D0
:100A3700D083D082F8E4937012740193700DA3A34E
:100A470093F8740193F5828883E473740293686062
:060A5700EFA3A3A380DF62
:100E1B00EFB40A07740D120E26740A309811A899B4
:100E2B00B8130CC2983098FDA899C298B811F63037
:070E3B0099FDC299F599220F
:00000001FF
