:100A9000457272457030526571436F64653D253013
:100AA00032580A00457272456E6470496E740A00CD
:100AB0007273740A00736C6565700A007765616B08
:100AC0000A00556E6B6E6F776E4552520A00737452
:100AD000617274202E2E2E0A001201000100000007
:100AE00040861A10E000000102000106A0FF090183
:100AF000A101090115002600FF7508954081020932
:100B000002750895409102090375089540B102C02D
:100B100009022900010104A02309040000020300C6
:100B20000000092100010001222500070582034081
:100B3000000107050203400001040309040E0377C6
:100B400000630068002E0063006E000C0343004841
:070B50000035003400330002
:03003F00011700A6
:0300430002004672
:0D004600C0E0C0F0C083C082C0D075D008FB
:1000530020D903020487E5D954BF70030201482461
:10006300E0607224FE605A24A2700302014824FE59
:10007300600F24E2605F24FE604724A06003020156
:100083005520DE0302048363D480AFDB7523008F26
:1000930024E4FFEFC39524E49523501C74402FF50B
:1000A30082E43400F583E0F4FE74802FF582E434B7
:1000B30000F583EEF00F80DB8524D553D4FC0204D6
:1000C3008375D50063D440751700E5D454FC44020E
:1000D300F5D4020483E51024FB605714600424055F
:1000E300705AC3E5129440E511940040067E007FE8
:1000F300408004AE11AF128E238F24C87400C8CC85
:100103007400CCCD7401CDAB13AA14A91512090E3A
:10011300C3E5129524F512E5119523F511E5242580
:1001230015F515E5233514F5148524DD63DC40024C
:100133000483E5E354804512F5E3800375DD007520
:10014300DC02020483AFDB7523008F2463DC8002AF
:100153000483E5D954B064B0600302047A75DCC04B
:10016300900007E0FE900006E07C002400F512EC0E
:100173003EF511900001E0F5107523007524009001
:100183000000E054606067E51024FE6037146034BB
:1001930024FA24FD502E240B7024751301751400CA
:1001A3007515C0C3E5129440E5119400400875230A
:1001B30000752440800E8511238512248006752343
:1001C300FF7524FFD3E5129524E511952340068599
:1001D3002311852412C3E5129440E51194004007CE
:1001E3007E007F400202D5AE11AF120202D5E510A8
:1001F300B40B00400302043B900202F82828730268
:10020300041902034002043B02037F02043B02037E
:100213000A02022302043B02031602032D02040115
:10022300900003E024FE601C14602A24E16066242D
:100233002170737513FF75140A7515D9752300752D
:10024300241280687513FF75140B75151075230040
:100253007524298057900002E0602924FE6014046D
:1002630070447513FF75140B75153D7523007524C4
:100273000E80397513FF75140B75154B75230075B7
:10028300240C80287513FF75140B7515397523001D
:1002930075240480177513FF75140A7515EB752300
:1002A3000075242580067523FF7524FFD3E5129579
:1002B30024E51195234006852311852412C3E512F5
:1002C3009440E511940040067E007F408004AE1107
:1002D300AF128E238F24C87400C8CC7400CCCD74A5
:1002E30001CDAB13AA14A91512090EC3E512952467
:1002F300F512E5119523F511E5242515F515E523EB
:100303003514F514020450900002E0751100F51243
:10031300020450900000E516F0C3E5129401E511C4
:1003230094005003020450020411900002E0F516F9
:10033300E516700302045075180102045090000082
:10034300E0541F64027033900004E01460261460CC
:10035300122481601414704BE5D454BC4402F5D4C8
:1003630002045053D473020450E5D254BC4402F542
:10037300D202045053D273020450807A900000E0FA
:10038300541FFD7C00701E900003E0FE900002E00D
:10039300FBEB64014E700C900B179330E5030204E2
:1003A3005080538051ED64024C704B900003E0FE8B
:1003B300900002E0FDED4E703B900005E0FE9000E2
:1003C30004E0FDEDFFEE702AEF24FE60112481604E
:1003D3001714701EE5D454BF4403F5D4806FE5D4DD
:1003E300547F440CF5D48065E5D254BF4403F5D261
:1003F300805B800280007523FF7524FF804F90008F
:1004030000E4F0C3E5129401E5119400403F752325
:10041300007524018037900000E4F0A3F0C3E512D7
:100423009402E51194004008752300752402801D91
:1004330085112385122480157523FF7524FF7BFF07
:100443007A0A7990753C0085103D120544E524F441
:100453007003E523F470087510FF75DCCF8021D39A
:10046300E5249440E523940050058524DD8003753D
:10047300DD0075DCC080097BFF7A0A79A41205448C
:10048300C2D9804A30D8207BFF7A0A79B01205445A
:1004930075DC0275D40275E300C2DAC2D9751700A0
:1004A300751800C2D8802730DA18C2DAE5DA7BFF84
:1004B30030E2067A0A79B580047A0A79BC120544D7
:1004C300800C7BFF7A0A79C212054475D8FF30D9B4
:0404D30003020059C7
:0B04D700D0D0D082D083D0F0D0E03233
:100CAF008D39AF397E00EBC0E0EAC0E0E9C0E0C8A3
:100CBF007480C8CC7400CCCD7401CDD0E0F9D0E0F5
:0E0CCF00FAD0E0FB12090E8539D553D4FC2271
:10000300C2EAE4F5E243EB0CF5D5CF7400CF8FECF5
:10001300CF7440CF8FE4F5E3F5B453D1FB53E2BF84
:1000230075B40843E21843D10175D8FF75E107D2CF
:02003300EA22BF
:100C5B00120D4C7F147E00120D1E120BE37BFF7ADC
:100C6B000A79CE120544E4FFEFC39440748094805C
:100C7B00500F74C02FF582E43400F583EFF00F8032
:100C8B00E7120003D2AF209512E51770FC75170120
:100C9B007B017A0079C07D40120CAF7F647E00121D
:040CAB000D1E80E2B8
:100D4C0075A15575A1AAE5B954F84406F5B9E4F5B1
:020D5C00A122D2
:100D0400EF4E601505A105A105A105A105A105A149
:0A0D140005A1EF1F70EA1E80E72220
:100D1E00AD07AC06ED4C600E7FE87E03120D04EDC0
:070D2E001D70F11C80EE2294
:0A0035004396C04397C053AAE72288
:100BE300C29FD29EC29DC2CDC2CC438780E4753CD6
:100BF30082F53BF53AF5397B0AFAF9F8AF3CAE3B9F
:100C0300AD3AAC39120970AF038F3DAF3CAE3BAD8B
:100C13003AAC39E47B0AFAF9F81209708F3C8E3B3F
:100C23008D3A8C39C3E53D9405748094804011EF6F
:100C33002401F53CE43EF53BE43DF53AE43CF5396B
:100C4300E589540F4420F58943C9A0E53CF404F534
:070C53008DD28ED299D29CD4
:010C5A002277
:0A0D5E0075A15575A1AA43B110223A
:100D350075A15575A1AAEF600543B101800353B1B3
:070D4500FEE4F5A1F5FF2219
:030D68008FFF22D8
:03000000020B5799
:0C0B5700787FE4F6D8FD75814C020B9EFF
:10083E00E709F608DFFA8046E709F208DFFA803E9C
:10084E0088828C83E709F0A3DFFA8032E309F60889
:10085E00DFFA8078E309F208DFFA807088828C83F1
:10086E00E309F0A3DFFA806489828A83E0A3F608A5
:10087E00DFFA805889828A83E0A3F208DFFA804C7F
:10088E0080D280FA80C680D4806980F28033801056
:10089E0080A680EA809A80A880DA80E280CA8033BF
:1008AE0089828A83ECFAE493A3C8C582C8CCC58337
:1008BE00CCF0A3C8C582C8CCC583CCDFE9DEE78007
:1008CE000D89828A83E493A3F608DFF9ECFAA9F086
:1008DE00EDFB2289828A83ECFAE0A3C8C582C8CCDC
:1008EE00C583CCF0A3C8C582C8CCC583CCDFEADEF5
:1008FE00E880DB89828A83E493A3F208DFF980CC57
:10090E0088F0EF60010E4E60C388F0ED2402B4044F
:10091E000050B9F582EB2402B4040050AF232345F6
:06092E00822390088E7385
:1009340075F008758200EF2FFFEE33FECD33CDCC7A
:1009440033CCC58233C5829BED9AEC99E5829840FD
:100954000CF582EE9BFEED9AFDEC99FC0FD5F0D6DA
:10096400E4CEFBE4CDFAE4CCF9A88222B800C1B904
:100974000059BA002DEC8BF084CFCECDFCE5F0CB42
:10098400F97818EF2FFFEE33FEED33FDEC33FCEB7B
:1009940033FB10D703994004EB99FB0FD8E5E4F936
:1009A400FA227818EF2FFFEE33FEED33FDEC33FC23
:1009B400C933C910D7059BE99A4007EC9BFCE99A17
:1009C400F90FD8E0E4C9FAE4CCFB2275F010EF2F5C
:1009D400FFEE33FEED33FDCC33CCC833C810D7075C
:1009E4009BEC9AE899400AED9BFDEC9AFCE899F897
:0E09F4000FD5F0DAE4CDFBE4CCFAE4C8F9222A
:1004E200E548243CF8E60548227839301002783C89
:1004F200E475F001120A5A020A022009EB7F2ED299
:10050200098018EF540F2490D43440D4FF300D0BDF
:10051200EF24BFB41A0050032461FFE549600215BD
:1005220049054CE54C7002054B30100D7839E475E5
:10053200F001120A5AEF020A48020CDD7403D210CB
:100542008003E4C210F5488B398A3A893BE4F549C5
:10055200F54BF54CE54960077F2012051D80F575C6
:100562004AFFC20AC209C20BC20CC20EC20FC2119A
:100572001204EBFF700D3010057F0012052EAF4CF8
:10058200AE4B22B4255FC2D5C20D1204EBFF24D0BC
:10059200B40A00501A75F00A784930D50508B6FF3A
:1005A2000106C6A426F620D5047002D20C80D924F6
:1005B200CFB41A00EF5004C2E5D20D02072ED20AC0
:1005C20080C6D20980C0D20B80BCD2D580BAD20EEE
:1005D20080B47F2012051D200B077401B54900402D
:1005E200F11204E2FF12051D020556D211D20F804C
:1005F200951204E2FB1204E2FA1204E2F94A4B7089
:100602000679FF7A077BFF200B2EE549602A7E00E0
:100612008E82758300120A1B60060EEE654A70F028
:10062200C2D5EBC0E0EAC0E0E9C0E0EE120775D047
:10063200E0F9D0E0FAD0E0FB120A02FF60AAEBC0B8
:10064200E0EAC0E0E9C0E012051DD0E02401F9D0E3
:10065200E03400FAD0E0FBE54A0460DCD54AD980F8
:10066200877BFF7A077971D20B809C79108002799F
:1006720008C20FC2118008D2D5790A8004790AC251
:10068200D5E54A047002F54AE4FAFDFEFF1204E2DF
:10069200FC7B08200A131204E2FD7B1030090A12C7
:1006A20004E2FE1204E2FF7B20EC3382D592D550A5
:1006B20013C3E43009069FFFE49EFEE4200A039D73
:1006C200FDE49CFCE4CBF8C20AEC700CCFCECDCC9E
:1006D200E824F8F870F38017C3EF33FFEE33FEED32
:1006E20033FDEC33FCEB33FB994002FB0FD8E9EB13
:1006F200300A05F8D0E0C448B20AC0E00AEC4D4E18
:100702004F78207B0070C2EAB54A0040BCC0E012BC
:100712000777D0F0D0E0200A04C4C0E0C4B20AC017
:10072200F0120506D0F0D5F0EB020556120A6A0562
:10073200F353066D5805C44C05C04206714F067945
:0F0742004406794905D943067F55066346066389
:1007510045066347081F5005C82D05CC2E05EF2B14
:1007610005D02305ED2008082A058848000005E783
:100771003F3F3F00790AA2D5200C14300E09B91071
:10078100020404B9080104A2D5200F02500104207B
:100791000B68920BB549005034C0E07F20300C1932
:1007A1007F30A20B720F720E500F1207CEC20BC216
:1007B1000FC20EC2117F30800F300E03E9C0E0126C
:1007C100051D300E03D0E0F9D0E0B549CC300E174D
:1007D1007F30B9100C12051D7F58300D077F7880CE
:1007E10003B9080312051D300B057F2D02051D7F7E
:1007F100202011F87F2B200FF322920B80CF286E3F
:10080100756C6C2900D20A1204E2300AF8C20A7827
:100811004930D50108F60205882D50434958120484
:10082100E22403B405004001E490081A9312050E76
:0D083100743A12050ED20C75490402066DD2
:100B6300020C5BE493A3F8E493A34003F68001F241
:100B730008DFF48029E493A3F85407240CC8C33393
:100B8300C4540F4420C8834004F456800146F6DF62
:100B9300E4800B010204081020408090003FE47EB3
:100BA300019360BCA3FF543F30E509541FFEE49357
:100BB300A360010ECF54C025E060A840B8E493A31E
:100BC300FAE493A3F8E493A3C8C582C8CAC583CA49
:100BD300F0A3C8C582C8CAC583CADFE9DEE780BE01
:0100420000BD
:100A0200BB010689828A83E0225002E722BBFE02F2
:090A1200E32289828A83E4932225
:100A1B00BB010CE58229F582E5833AF583E0225090
:100A2B0006E92582F8E622BBFE06E92582F8E222DA
:0D0A3B00E58229F582E5833AF583E49322F4
:100A4800BB010689828A83F0225002F722BBFE018D
:020A5800F32287
:100A5A00FAE6FB0808E6F925F0F618E6CA3AF6229D
:100A6A00D083D082F8E4937012740193700DA3A31B
:100A7A0093F8740193F5828883E47374029368602F
:060A8A00EFA3A3A380DF2F
:100CDD00EFB40A07740D120CE8740A309811A89934
:100CED00B8130CC2983098FDA899C298B811F63077
:070CFD0099FDC299F599224F
:00000001FF
