:10099000457272457030526571547970653D2530ED
:1009A00032580A00457272457030526571436F6467
:1009B000653D253032580A00457272456E647049B3
:1009C0006E740A00736C6565700A00556E6B6E6F0D
:1009D000776E496E740A00537461727420404368E4
:1009E000697049443D253032580A0012011001FF58
:1009F00080550848433755000101020001090227CC
:100A00000001010080320904000003FF8055000747
:100A10000582024000000705020240000007058130
:100A200003400000040309040E037700630068001C
:100A30002E0063006E000C034300480035003400B4
:020A4000330081
:030C1800011500C3
:0300430002004672
:0D004600C0E0C0F0C083C082C0D075D008FB
:10005300C29220D903020375E5D954BF12090201E4
:10006300410000840200E02000D22100C4220141AB
:100073008000848200E0A000D2A100C4A20000019D
:100083004720DE0302037163D480AFDB7523008F47
:1000930024E4FFEFC39524E49523501C744A2FF501
:1000A30082E43400F583E0F4FE748A2FF582E434AD
:1000B30000F583EEF00F80DB8524D553D4FC0203D7
:1000C3007163D440E5D454FC4402F5D40203716354
:1000D300D240E5D254FC4402F5D2020371E5102468
:1000E300FB604C147053C3E51194087480948040F2
:1000F300047F088002AF117523008F24AE23C874D8
:1001030000C8CC7400CCCD7401CDAB12AA13A914D2
:1001130012080EAF24C3E5119FF511E5242514F54C
:1001230014E5233513F5138FDD63DC40020371E51A
:10013300E354804511F5E3800575DD00800075DC2F
:1001430002020371E5D954B064B060030203687519
:10015300DCC0900006E02400F5117523007524002F
:10016300900000E0FF546060147523FF7524FF7B4B
:10017300FF7A097990753C008F3D02033B900001A3
:10018300E0F510E51070030203071470030202AEDA
:1001930024FC700302027B24FD70030202841470AA
:1001A3000302029A1470030202EF240460030203A1
:1001B30029900003E024FE60181460262402706274
:1001C3007512FF7513097514EB75230075241280DE
:1001D300577512FF7513097514FD752300752427D0
:1001E3008046900002E0602924FE60140470337599
:1001F30012FF75130A75142875230075240E8028C1
:100203007512FF75130A75143675230075240C8057
:10021300177512FF75130A751424752300752404CA
:1002230080067523FF7524FFD3E5119524E49523F8
:100233004003852411C3E51194087480948040041D
:100243007F088002AF117523008F24AE23C874008A
:10025300C8CC7400CCCD7401CDAB12AA13A914126F
:10026300080EC3E5119524F511E5242514F514E5CD
:10027300233513F51302033E900002E0F511020348
:100283003E900000E515F0C3E5119401748094805D
:10029300500302033E8065900002E0F515E515600A
:1002A30005C29102033ED29102033E900000E05446
:1002B3001F6402702F900004E01460231460112463
:1002C30081601214701EE5D454BC4402F5D4806BD3
:1002D30053D4738066E5D254BC4402F5D2805C5398
:1002E300D27380577523FF7524FF804F900000E47D
:1002F300F0C3E511940174809480403F7523007529
:1003030024018037900000E4F0A3F0C3E5119402C8
:10031300748094804008752300752402801D752322
:100323000085112480157523FF7524FF7BFF7A094F
:1003330079A4753C0085103D120444E524F4700350
:10034300E523F470087510FF75DCCF8021D3E52415
:100353009408E523940050058524DD800375DD00B2
:1003630075DCC080097BFF7A0979B8120444C2D9CD
:10037300805A30D81675DC0275D20275D40275E343
:1003830000D291C2DAC2D9C2D8804130DA32C2DA9D
:10039300E5DA30E2277BFF7A0979C4120444D29369
:1003A300E5A220E7FB75A15575A1AA75A98143872D
:1003B3000275A15575A1AA75A9008010C293800C7E
:1003C3007BFF7A0979CB12044475D8FF30D9030235
:0403D300005BD29267
:0B03D700D0D0D082D083D0F0D0E03234
:100B4600C2EAD291C293E4F5E275EA4075EB0CCFA6
:100B56007400CF8FECCF740ACF8FEECF744ACF8F4D
:100B6600E4F5E3F5B453D1FB53E2BF75B40875E27F
:0D0B76001843D10175D8FF75E107D2EA22BE
:10000300120BF27F147E00120BC4120ACE7BFF7A0E
:100013000979D7AFA1753C008F3D120444120B46FA
:10002300D2AFE4FFEFC3948074809480500F744A7E
:0F0033002FF582E43400F583E4F00F80E780FEC0
:100BF20075A15575A1AAE5B954F84406F5B9E4F50D
:020C0200A1222D
:100BAA00EF4E601505A105A105A105A105A105A1A5
:0A0BBA0005A1EF1F70EA1E80E7227C
:100BC400AD07AC06ED4C600E7FE87E03120BAAED78
:070BD4001D70F11C80EE22F0
:0A0C04004396C04397C053AAE722AD
:100ACE00C29FD29EC29DC2CDC2CC438780E4753CEC
:100ADE0082F53BF53AF5397B0AFAF9F8AF3CAE3BB5
:100AEE00AD3AAC39120870AF038F3DAF3CAE3BADA3
:100AFE003AAC39E47B0AFAF9F81208708F3C8E3B57
:100B0E008D3A8C39C3E53D9405748094804011EF85
:100B1E002401F53CE43EF53BE43DF53AE43CF53981
:100B2E00E589540F4420F58943C9A0E53CF404F54A
:070B3E008DD28ED299D29CEA
:010B4500228D
:0A0C0E0075A15575A1AA43B110228B
:100BDB0075A15575A1AAEF600543B101800353B10F
:070BEB00FEE4F5A1F5FF2275
:030C1C008FFF2225
:03000000020A42AF
:0C0A4200787FE4F6D8FD75814C020A892B
:10073E00E709F608DFFA8046E709F208DFFA803E9D
:10074E0088828C83E709F0A3DFFA8032E309F6088A
:10075E00DFFA8078E309F208DFFA807088828C83F2
:10076E00E309F0A3DFFA806489828A83E0A3F608A6
:10077E00DFFA805889828A83E0A3F208DFFA804C80
:10078E0080D280FA80C680D4806980F28033801057
:10079E0080A680EA809A80A880DA80E280CA8033C0
:1007AE0089828A83ECFAE493A3C8C582C8CCC58338
:1007BE00CCF0A3C8C582C8CCC583CCDFE9DEE78008
:1007CE000D89828A83E493A3F608DFF9ECFAA9F087
:1007DE00EDFB2289828A83ECFAE0A3C8C582C8CCDD
:1007EE00C583CCF0A3C8C582C8CCC583CCDFEADEF6
:1007FE00E880DB89828A83E493A3F208DFF980CC58
:10080E0088F0EF60010E4E60C388F0ED2402B40450
:10081E000050B9F582EB2402B4040050AF232345F7
:06082E00822390078E7387
:1008340075F008758200EF2FFFEE33FECD33CDCC7B
:1008440033CCC58233C5829BED9AEC99E5829840FE
:100854000CF582EE9BFEED9AFDEC99FC0FD5F0D6DB
:10086400E4CEFBE4CDFAE4CCF9A88222B800C1B905
:100874000059BA002DEC8BF084CFCECDFCE5F0CB43
:10088400F97818EF2FFFEE33FEED33FDEC33FCEB7C
:1008940033FB10D703994004EB99FB0FD8E5E4F937
:1008A400FA227818EF2FFFEE33FEED33FDEC33FC24
:1008B400C933C910D7059BE99A4007EC9BFCE99A18
:1008C400F90FD8E0E4C9FAE4CCFB2275F010EF2F5D
:1008D400FFEE33FEED33FDCC33CCC833C810D7075D
:1008E4009BEC9AE899400AED9BFDEC9AFCE899F898
:0E08F4000FD5F0DAE4CDFBE4CCFAE4C8F9222B
:10090200D083D082F8E4937012740193700DA3A384
:1009120093F8740193F5828883E473740293686098
:06092200EFA3A3A380DF98
:1003E200E548243CF8E60548227839301002783C8A
:1003F200E475F0011209800209282009EB7F2ED250
:10040200098018EF540F2490D43440D4FF300D0BE0
:10041200EF24BFB41A0050032461FFE549600215BE
:1004220049054CE54C7002054B30100D7839E475E6
:10043200F001120980EF02096E020B837403D210DD
:100442008003E4C210F5488B398A3A893BE4F549C6
:10045200F54BF54CE54960077F2012041D80F575C8
:100462004AFFC20AC209C20BC20CC20EC20FC2119B
:100472001203EBFF700D3010057F0012042EAF4CFB
:10048200AE4B22B4255FC2D5C20D1203EBFF24D0BE
:10049200B40A00501A75F00A784930D50508B6FF3B
:1004A2000106C6A426F620D5047002D20C80D924F7
:1004B200CFB41A00EF5004C2E5D20D02062ED20AC2
:1004C20080C6D20980C0D20B80BCD2D580BAD20EEF
:1004D20080B47F2012041D200B077401B54900402F
:1004E200F11203E2FF12041D020456D211D20F8050
:1004F200951203E2FB1203E2FA1203E2F94A4B708D
:100502000679FF7A067BFF200B2EE549602A7E00E2
:100512008E8275830012094160060EEE654A70F004
:10052200C2D5EBC0E0EAC0E0E9C0E0EE120675D049
:10053200E0F9D0E0FAD0E0FB120928FF60AAEBC094
:10054200E0EAC0E0E9C0E012041DD0E02401F9D0E5
:10055200E03400FAD0E0FBE54A0460DCD54AD980F9
:10056200877BFF7A067971D20B809C7910800279A1
:1005720008C20FC2118008D2D5790A8004790AC252
:10058200D5E54A047002F54AE4FAFDFEFF1203E2E1
:10059200FC7B08200A131203E2FD7B1030090A12C9
:1005A20003E2FE1203E2FF7B20EC3382D592D550A8
:1005B20013C3E43009069FFFE49EFEE4200A039D74
:1005C200FDE49CFCE4CBF8C20AEC700CCFCECDCC9F
:1005D200E824F8F870F38017C3EF33FFEE33FEED33
:1005E20033FDEC33FCEB33FB994002FB0FD8E9EB14
:1005F200300A05F8D0E0C448B20AC0E00AEC4D4E19
:100602004F78207B0070C2EAB54A0040BCC0E012BD
:100612000677D0F0D0E0200A04C4C0E0C4B20AC019
:10062200F0120406D0F0D5F0EB02045612090204CF
:10063200F353056D5804C44C04C04205714F05794B
:0F0642004405794904D943057F5505634605638F
:1006510045056347071F5004C82D04CC2E04EF2B1A
:1006610004D02304ED2007082A048848000004E789
:100671003F3F3F00790AA2D5200C14300E09B91072
:10068100020404B9080104A2D5200F02500104207C
:100691000B68920BB549005034C0E07F20300C1933
:1006A1007F30A20B720F720E500F1206CEC20BC218
:1006B1000FC20EC2117F30800F300E03E9C0E0126D
:1006C100041D300E03D0E0F9D0E0B549CC300E174F
:1006D1007F30B9100C12041D7F58300D077F7880D0
:1006E10003B9080312041D300B057F2D02041D7F81
:1006F100202011F87F2B200FF322920B80CF286E40
:10070100756C6C2900D20A1203E2300AF8C20A7829
:100711004930D50108F60204882D50434958120387
:10072100E22403B405004001E490071A9312040E79
:0D073100743A12040ED20C75490402056DD5
:100A4E00020003E493A3F8E493A34003F68001F2BB
:100A5E0008DFF48029E493A3F85407240CC8C333A9
:100A6E00C4540F4420C8834004F456800146F6DF78
:100A7E00E4800B0102040810204080900C18E47EE4
:100A8E00019360BCA3FF543F30E509541FFEE4936D
:100A9E00A360010ECF54C025E060A840B8E493A334
:100AAE00FAE493A3F8E493A3C8C582C8CAC583CA5F
:100ABE00F0A3C8C582C8CAC583CADFE9DEE780BE17
:010C1B0000D8
:10092800BB010689828A83E0225002E722BBFE02CD
:09093800E32289828A83E4932200
:10094100BB010CE58229F582E5833AF583E022506B
:1009510006E92582F8E622BBFE06E92582F8E222B5
:0D096100E58229F582E5833AF583E49322CF
:10096E00BB010689828A83F0225002F722BBFE0168
:02097E00F32262
:10098000FAE6FB0808E6F925F0F618E6CA3AF62278
:100B8300EFB40A07740D120B8E740A309811A899EA
:100B9300B8130CC2983098FDA899C298B811F630D2
:070BA30099FDC299F59922AA
:00000001FF
