:1007420075F308E5F354FC4FF5F385F40B43F320FE
:010752002284
:10054700E5F654F04FF5F6EFB40C00507290055BEA
:10055700F828287302057F02057F02058D0205C66C
:1005670002057F02057F02057F02057F02059B02C8
:10057700059B0205B10205B1C8EFC87401088002E6
:10058700C333D8FC8034C8EFC87401088002C33372
:10059700D8FC8010EF24FEFEC8EEC8740108800264
:1005A700C333D8FCF45296529722EF24F8FEC8EED4
:1005B700C87401088002C333D8FCF45292529322C4
:1006C9004144432064656D6F207374617274202EF8
:0F06D9002E2E0A00636825643D25640A000A007E
:03076700011F006F
:10063F00E4F50A1207307F057E001207021205C784
:10064F007BFF7A0679C9120065E4FF120742E4F5D1
:10065F0008E508640E602AAF0812054743F310E55A
:10066F00F3542060FA43F3207BFF7A0679DD750E91
:10067F000085080F85F51085F411120065050880B7
:10068F00D07BFF7A0679E61200657F647E00120741
:03069F000280BB1B
:1007300075A15575A1AAE5B954F84406F5B9E4F5D3
:02074000A122F4
:1006E800EF4E601505A105A105A105A105A105A16C
:0A06F80005A1EF1F70EA1E80E72243
:10070200AD07AC06ED4C600E7FE87E031206E8ED05
:070712001D70F11C80EE22B6
:0A0753004396C04397C053AAE72263
:1005C700C29FD29EC29DC2CDC2CC438780E4750E26
:1005D70082F50DF50CF50B7B0AFAF9F8AF0EAE0DA7
:1005E700AD0CAC0B12039BAF038F0FAF0EAE0DAD6F
:1005F7000CAC0BE47B0AFAF9F812039B8F0E8E0DF5
:100607008D0C8C0BC3E50F9405748094804011EF1B
:100617002401F50EE43EF50DE43DF50CE43CF50B45
:10062700E589540F4420F58943C9A0E50EF404F584
:070637008DD28ED299D29CF6
:01063E002299
:0A075D0075A15575A1AA43B1102241
:1007190075A15575A1AAEF600543B101800353B1D5
:07072900FEE4F5A1F5FF223B
:03076B008FFF22DB
:030000000204BB3C
:0C04BB00787FE4F6D8FD7581210205026F
:10035F0075F008758200EF2FFFEE33FECD33CDCC55
:10036F0033CCC58233C5829BED9AEC99E5829840D8
:10037F000CF582EE9BFEED9AFDEC99FC0FD5F0D6B5
:10038F00E4CEFBE4CDFAE4CCF9A88222B800C1B9DF
:10039F000059BA002DEC8BF084CFCECDFCE5F0CB1D
:1003AF00F97818EF2FFFEE33FEED33FDEC33FCEB56
:1003BF0033FB10D703994004EB99FB0FD8E5E4F911
:1003CF00FA227818EF2FFFEE33FEED33FDEC33FCFE
:1003DF00C933C910D7059BE99A4007EC9BFCE99AF2
:1003EF00F90FD8E0E4C9FAE4CCFB2275F010EF2F37
:1003FF00FFEE33FEED33FDCC33CCC833C810D70737
:10040F009BEC9AE899400AED9BFDEC9AFCE899F871
:0E041F000FD5F0DAE4CDFBE4CCFAE4C8F92204
:10000300E51A240EF8E6051A22780B300702780E5B
:10001300E475F00112048502042D2000EB7F2ED23B
:10002300008018EF540F2490D43440D4FF30040BD5
:10003300EF24BFB41A0050032461FFE51B600215CF
:100043001B051EE51E7002051D30070D780BE475B8
:10005300F001120485EF0204730206A27403D207AF
:100063008003E4C207F51A8B0B8A0C890DE4F51B98
:10007300F51DF51EE51B60077F2012003E80F57518
:100083001CFFC201C200C202C203C205C206C208EB
:1000930012000CFF700D3007057F0012004FAF1EDA
:1000A300AE1D22B4255FC2D5C20412000CFF24D0BA
:1000B300B40A00501A75F00A781B30D50508B6FF4C
:1000C3000106C6A426F620D5047002D20380D924E3
:1000D300CFB41A00EF5004C2E5D20402024FD2019A
:1000E30080C6D20080C0D20280BCD2D580BAD205ED
:1000F30080B47F2012003E2002077401B51B00402C
:10010300F1120003FF12003E020077D208D20680EC
:1001130095120003FB120003FA120003F94A4B7015
:100123000679207A037BFF20022EE51B602A7E00DE
:100133008E8275830012044660060EEE651C70F015
:10014300C2D5EBC0E0EAC0E0E9C0E0EE120296D00F
:10015300E0F9D0E0FAD0E0FB12042DFF60AAEBC077
:10016300E0EAC0E0E9C0E012003ED0E02401F9D0AB
:10017300E03400FAD0E0FBE51C0460DCD51CD98038
:10018300877BFF7A027992D202809C791080027970
:1001930008C206C2088008D2D5790A8004790AC247
:1001A300D5E51C047002F51CE4FAFDFEFF12000302
:1001B300FC7B08200113120003FD7B1030000A12A0
:1001C3000003FE120003FF7B20EC3382D592D5504F
:1001D30013C3E43000069FFFE49EFEE42001039D69
:1001E300FDE49CFCE4CBF8C201EC700CCFCECDCC8B
:1001F300E824F8F870F38017C3EF33FFEE33FEED16
:1002030033FDEC33FCEB33FB994002FB0FD8E9EBF6
:10021300300105F8D0E0C448B201C0E00AEC4D4E0D
:100223004F78207B0070C2EAB51C0040BCC0E012CE
:100233000298D0F0D0E0200104C4C0E0C4B201C0F1
:10024300F0120027D0F0D5F0EB02007712049501ED
:100253001453018E5800E54C00E14201924F019A7C
:0F02630044019A4900FA4301A0550184460184E1
:100272004501844703405000E92D00ED2E01102B6B
:1002820000F123010E2003292A00A94800000108D9
:100292003F3F3F00790AA2D5200314300509B91067
:1002A200020404B9080104A2D52006025001042068
:1002B20002689202B51B005034C0E07F203003195F
:1002C2007F30A20272067205500F1202EFC202C202
:1002D20006C205C2087F30800F300503E9C0E01274
:1002E200003E300503D0E0F9D0E0B51BCC30051755
:1002F2007F30B9100C12003E7F583004077F78809F
:1003020003B9080312003E3002057F2D02003E7F32
:10031200202008F87F2B2006F322920280CF286E3D
:10032200756C6C2900D2011200033001F8C2017809
:100332001B30D50108F60200A92D5043495812007E
:10034200032403B405004001E490033B9312002F01
:0D035200743A12002FD203751B0402018EB5
:1004C70002063FE493A3F8E493A34003F68001F206
:1004D70008DFF48029E493A3F85407240CC8C33336
:1004E700C4540F4420C8834004F456800146F6DF05
:1004F700E4800B0102040810204080900767E47E27
:10050700019360BCA3FF543F30E509541FFEE493F9
:10051700A360010ECF54C025E060A840B8E493A3C0
:10052700FAE493A3F8E493A3C8C582C8CAC583CAEB
:10053700F0A3C8C582C8CAC583CADFE9DEE780BEA3
:01076A00008E
:10042D00BB010689828A83E0225002E722BBFE02CD
:09043D00E32289828A83E4932200
:10044600BB010CE58229F582E5833AF583E022506B
:1004560006E92582F8E622BBFE06E92582F8E222B5
:0D046600E58229F582E5833AF583E49322CF
:10047300BB010689828A83F0225002F722BBFE0168
:02048300F32262
:10048500FAE6FB0808E6F925F0F618E6CA3AF62278
:10049500D083D082F8E4937012740193700DA3A3F6
:1004A50093F8740193F5828883E47374029368600A
:0604B500EFA3A3A380DF0A
:1006A200EFB40A07740D1206AD740A309811A899B6
:1006B200B8130CC2983098FDA899C298B811F630B8
:0706C20099FDC299F5992290
:00000001FF
