:10003D004750494F20696E740A0050333220466193
:10004D006C6C696E670A005033332046616C6C69C5
:04005D006E670A00C0
:0306D000C9EFC9A6
:1006D300E924FD600A2402700AAC92AE938004AC54
:1006E30096AE97CFEBCFEF14601414601A1460200A
:1006F30024037025EDF4FF5CFCEE5FFE801BEDF43C
:100703005CFCEE4DFE8012EC4DFCEDF45EFE8009C8
:10071300EC4DFCCFEDCFEE4FFECFE9CFEF24FD60E4
:0E07230009240270098C928E93228C968E9778
:0107310022A5
:10057400900078EEF0A3EFF0CFEDCFEF6401702799
:10058400900078A3E0FF547F600C75A15575A1AA73
:1005940043B280E4F5A1EF30E702D288900078E01E
:1005A40030E029D28A8025900078A3E0FF547F6050
:1005B4000C75A15575A1AA53B27FE4F5A1EF30E7FC
:1005C40002D288900078E030E002D28ACFEBCFEFFD
:1005D4006401703075A15575A1AA900078A3E0FF5D
:1005E400CDEFCD547F42B2E4F5A1EF30E702D2A8BB
:1005F400900078E030E002D2AAE5B2547F6002D2E3
:10060400EED2AF2275A15575A1AA900078A3E0FFA0
:10061400CDEFCD547FF452B2E4F5A1EF30E702C23E
:10062400A8900078E030E002C2AAE5B2547F7002DC
:03063400C2EE22F1
:03006300020794FD
:10079400C0E0C0F0C083C082C0D0E8C0E0E9C0E0DF
:1007A400EAC0E0EBC0E0ECC0E0EDC0E0EEC0E0EF9A
:1007B400C0E07F0A7E001208AD7BFF7A00793D120B
:1007C40000D1D0E0FFD0E0FED0E0FDD0E0FCD0E0EE
:1007D400FBD0E0FAD0E0F9D0E0F8D0D0D082D083DA
:0507E400D0F0D0E0326E
:030003000207E908
:1007E900C0E0C0F0C083C082C0D0E8C0E0E9C0E08A
:1007F900EAC0E0EBC0E0ECC0E0EDC0E0EEC0E0EF45
:10080900C0E07F0A7E001208AD7BFF7A00794712AB
:1008190000D1D0E0FFD0E0FED0E0FDD0E0FCD0E098
:10082900FBD0E0FAD0E0F9D0E0F8D0D0D082D08384
:05083900D0F0D0E03218
:0300130002083EA2
:10083E00C0E0C0F0C083C082C0D0E8C0E0E9C0E034
:10084E00EAC0E0EBC0E0ECC0E0EDC0E0EEC0E0EFEF
:10085E00C0E07F0A7E001208AD7BFF7A0079541249
:10086E0000D1D0E0FFD0E0FED0E0FDD0E0FCD0E043
:10087E00FBD0E0FAD0E0F9D0E0F8D0D0D082D0832F
:05088E00D0F0D0E032C3
:1008DB004750494F2064656D6F20737461727420AB
:0508EB002E2E2E0A0074
:100732001208F07F147E001208AD1206377BFF7A92
:100742000879DB1200D17B037D087F011206D07B82
:10075200037D107F011206D07B037D207F011206EC
:10076200D07B037D807F011206D07B037D027F0355
:100772001206D07B037D047F031206D07B037D0823
:100782007F031206D07B017D017FE07E011205749A
:0207920080FEE7
:1008F00075A15575A1AAE5B954F84406F5B9E4F512
:02090000A12232
:10089300EF4E601505A105A105A105A105A105A1BF
:0A08A30005A1EF1F70EA1E80E72296
:1008AD00AD07AC06ED4C600E7FE87E03120893EDAC
:0708BD001D70F11C80EE220A
:0A0902004396C04397C053AAE722B2
:10063700C29FD29EC29DC2CDC2CC43878090007814
:100647001204A500000082E47B0AFAF9F89000780A
:10065700E0FCA3E0FDA3E0FEA3E0FF120407900087
:100667007CEBF0900078E0FCA3E0FDA3E0FEA3E0C4
:10067700FFE47B0AFAF9F81204079000781204994C
:1006870090007CE0C3940574809480401F900078AC
:10069700E0FCA3E0FDA3E0FEA3E02401FFE43EFEAF
:1006A700E43DFDE43CFC900078120499E589540F81
:1006B7004420F58943C9A0900078A3A3A3E0F404DC
:0806C700F58DD28ED299D29C70
:0106CF002208
:0A090C0075A15575A1AA43B1102290
:1008C40075A15575A1AAEF600543B101800353B129
:0708D400FEE4F5A1F5FF228F
:030916008FFF222E
:03000000020006F5
:0C000600787FE4F6D8FD758124020732F3
:1003CB0075F008758200EF2FFFEE33FECD33CDCCE9
:1003DB0033CCC58233C5829BED9AEC99E58298406C
:1003EB000CF582EE9BFEED9AFDEC99FC0FD5F0D649
:1003FB00E4CEFBE4CDFAE4CCF9A88222B800C1B973
:10040B000059BA002DEC8BF084CFCECDFCE5F0CBB0
:10041B00F97818EF2FFFEE33FEED33FDEC33FCEBE9
:10042B0033FB10D703994004EB99FB0FD8E5E4F9A4
:10043B00FA227818EF2FFFEE33FEED33FDEC33FC91
:10044B00C933C910D7059BE99A4007EC9BFCE99A85
:10045B00F90FD8E0E4C9FAE4CCFB2275F010EF2FCA
:10046B00FFEE33FEED33FDCC33CCC833C810D707CA
:10047B009BEC9AE899400AED9BFDEC9AFCE899F805
:0E048B000FD5F0DAE4CDFBE4CCFAE4C8F92298
:0C049900ECF0A3EDF0A3EEF0A3EFF022D6
:1004A500A8828583F0D083D0821204BC1204BC12CA
:1004B50004BC1204BCE473E493A3C583C5F0C583EF
:1004C500C8C582C8F0A3C583C5F0C583C8C582C8A1
:0104D5002204
:10006600E517247BF582E43400F583E0051722903A
:10007600007830220390007BE475F00112052E0211
:1000860004D6201BE97F2ED21B8018EF540F249034
:10009600D43440D4FF301F0BEF24BFB41A005003F2
:1000A6002461FFE51860021518051BE51B700205A3
:1000B6001A30220E900078E475F00112052EEF0238
:1000C600051C0200167403D2228003E4C222F5172F
:1000D600900078120545E4F518F51AF51BE5186049
:1000E600077F201200A980F57519FFC21CC21BC22A
:1000F6001DC21EC220C221C223120075FF700D3020
:1001060022057F001200BAAF1BAE1A22B4255FC2C9
:10011600D5C21F120075FF24D0B40A00501A75F01C
:100126000A781830D50508B6FF0106C6A426F620BB
:10013600D5047002D21E80D924CFB41A00EF500421
:10014600C2E5D21F0202BBD21C80C6D21B80C0D21F
:100156001D80BCD2D580BAD22080B47F201200A9DF
:10016600201D077401B5180040F1120066FF120049
:10017600A90200E3D223D2218095120066FB120069
:1001860066FA120066F94A4B7006798C7A037BFF91
:10019600201D2EE518602A7E008E827583001204CB
:1001A600EF60060EEE651970F0C2D5EBC0E0EAC04E
:1001B600E0E9C0E0EE120302D0E0F9D0E0FAD0E0C8
:1001C600FB1204D6FF60AAEBC0E0EAC0E0E9C0E09B
:1001D6001200A9D0E02401F9D0E03400FAD0E0FB07
:1001E600E5190460DCD519D980877BFF7A0279FE90
:1001F600D21D809C791080027908C221C223800812
:10020600D2D5790A8004790AC2D5E519047002F5B7
:1002160019E4FAFDFEFF120066FC7B08201C13128F
:100226000066FD7B10301B0A120066FE120066FF98
:100236007B20EC3382D592D55013C3E4301B069F46
:10024600FFE49EFEE4201C039DFDE49CFCE4CBF849
:10025600C21CEC700CCFCECDCCE824F8F870F3803D
:1002660017C3EF33FFEE33FEED33FDEC33FCEB3318
:10027600FB994002FB0FD8E9EB301C05F8D0E0C42F
:1002860048B21CC0E00AEC4D4E4F78207B0070C28D
:10029600EAB5190040BCC0E0120304D0F0D0E0205B
:1002A6001C04C4C0E0C4B21CC0F0120092D0F0D549
:1002B600F0EB0200E312054E01805301FA5801519A
:1002C6004C014D4201FE4F020644020649016643B7
:0802D600020C5501F04601F095
:1002DE004501F04703AC5001552D01592E017C2BE1
:1002EE00015D23017A2003952A011548000001744F
:1002FE003F3F3F00790AA2D5201E14302009B910C5
:10030E00020404B9080104A2D520210250010420E0
:10031E001D68921DB518005034C0E07F20301E19A4
:10032E007F30A21D72217220500F12035BC21DC2BC
:10033E0021C220C2237F30800F302003E9C0E0129B
:10034E0000A9302003D0E0F9D0E0B518CC3020174A
:10035E007F30B9100C1200A97F58301F077F7880AC
:10036E0003B908031200A9301D057F2D0200A97FD5
:10037E00202023F87F2B2021F322921D80CF286E80
:10038E00756C6C2900D21C120066301CF8C21C78E9
:10039E001830D50108F60201152D504349581200A8
:1003AE00662403B405004001E49003A79312009A5B
:0D03BE00743A12009AD21E7518040201FA5A
:1004D600BB010689828A83E0225002E722BBFE0224
:0904E600E32289828A83E4932257
:1004EF00BB010CE58229F582E5833AF583E02250C2
:1004FF0006E92582F8E622BBFE06E92582F8E2220C
:0D050F00E58229F582E5833AF583E4932225
:10051C00BB010689828A83F0225002F722BBFE01BE
:02052C00F322B8
:10052E00F8E0FBA3A3E0F925F0F0E5821582700256
:07053E001583E0FA38F022FA
:09054500EBF0A3EAF0A3E9F022B7
:10054E00D083D082F8E4937012740193700DA3A33C
:10055E0093F8740193F5828883E473740293686050
:06056E00EFA3A3A380DF50
:10001600EFB40A07740D120021740A309811A899DA
:10002600B8130CC2983098FDA899C298B811F6304A
:0700360099FDC299F5992222
:00000001FF
